{"abi":[{"inputs":[{"internalType":"address","name":"_studentData","type":"address"},{"internalType":"address","name":"_schoolFiles","type":"address"},{"internalType":"address","name":"_login","type":"address"}],"stateMutability":"nonpayable","type":"constructor"},{"anonymous":false,"inputs":[{"indexed":true,"internalType":"uint256","name":"_assignmentId","type":"uint256"},{"indexed":true,"internalType":"uint256","name":"_class","type":"uint256"}],"name":"assignmentAdded","type":"event"},{"anonymous":false,"inputs":[{"indexed":true,"internalType":"uint256","name":"_studentId","type":"uint256"},{"indexed":true,"internalType":"uint256","name":"_dob","type":"uint256"}],"name":"studentAdded","type":"event"},{"anonymous":false,"inputs":[{"indexed":true,"internalType":"uint256","name":"_studentId","type":"uint256"},{"indexed":true,"internalType":"uint256","name":"_rollNumber","type":"uint256"}],"name":"studentFound","type":"event"},{"inputs":[{"internalType":"uint256","name":"_class","type":"uint256"},{"internalType":"string","name":"_subject","type":"string"},{"internalType":"string","name":"_file","type":"string"},{"internalType":"string","name":"_topic","type":"string"}],"name":"addAssignment","outputs":[],"stateMutability":"nonpayable","type":"function"},{"inputs":[{"internalType":"uint256","name":"_studentId","type":"uint256"},{"internalType":"uint256","name":"_class","type":"uint256"},{"internalType":"string","name":"_file","type":"string"}],"name":"addMarksCard","outputs":[],"stateMutability":"nonpayable","type":"function"},{"inputs":[{"internalType":"string","name":"_name","type":"string"},{"internalType":"uint256","name":"_rollNumber","type":"uint256"},{"internalType":"uint256","name":"_dob","type":"uint256"},{"internalType":"string","name":"_gender","type":"string"}],"name":"addStudent","outputs":[],"stateMutability":"nonpayable","type":"function"},{"inputs":[{"internalType":"uint256","name":"_class","type":"uint256"},{"internalType":"string","name":"_exam","type":"string"},{"internalType":"string","name":"_file","type":"string"}],"name":"addTimeTable","outputs":[],"stateMutability":"nonpayable","type":"function"},{"inputs":[],"name":"admin","outputs":[{"internalType":"address","name":"","type":"address"}],"stateMutability":"view","type":"function"},{"inputs":[],"name":"femaleStudents","outputs":[{"internalType":"uint256","name":"","type":"uint256"}],"stateMutability":"view","type":"function"},{"inputs":[{"internalType":"uint256","name":"_assignmentId","type":"uint256"}],"name":"getAssignmentData","outputs":[{"internalType":"string","name":"subject","type":"string"},{"internalType":"string","name":"topic","type":"string"},{"internalType":"string","name":"file","type":"string"}],"stateMutability":"view","type":"function"},{"inputs":[{"internalType":"uint256","name":"_studentId","type":"uint256"}],"name":"getParentalDetails","outputs":[{"internalType":"string","name":"guardianName","type":"string"},{"internalType":"string","name":"fatherName","type":"string"},{"internalType":"string","name":"motherName","type":"string"},{"internalType":"string","name":"educationFather","type":"string"},{"internalType":"string","name":"educationMother","type":"string"}],"stateMutability":"view","type":"function"},{"inputs":[{"internalType":"uint256","name":"_studentId","type":"uint256"}],"name":"getPersonalDetails","outputs":[{"internalType":"string","name":"currentAddress","type":"string"},{"internalType":"string","name":"caste","type":"string"},{"internalType":"string","name":"nationality","type":"string"}],"stateMutability":"view","type":"function"},{"inputs":[],"name":"getStudentCount","outputs":[{"internalType":"uint256","name":"studentCount","type":"uint256"}],"stateMutability":"view","type":"function"},{"inputs":[{"internalType":"uint256","name":"_studentId","type":"uint256"}],"name":"getStudentPrimaryData","outputs":[{"internalType":"string","name":"name","type":"string"},{"internalType":"uint256","name":"rollNumber","type":"uint256"},{"internalType":"uint256","name":"dob","type":"uint256"},{"internalType":"string","name":"gender","type":"string"}],"stateMutability":"view","type":"function"},{"inputs":[{"internalType":"uint256","name":"_studentId","type":"uint256"}],"name":"getStudentSchoolDetails","outputs":[{"internalType":"uint256","name":"_class","type":"uint256"},{"internalType":"string","name":"_email","type":"string"},{"internalType":"uint256","name":"_batch","type":"uint256"}],"stateMutability":"view","type":"function"},{"inputs":[{"internalType":"string","name":"_name","type":"string"},{"internalType":"string","name":"_password","type":"string"}],"name":"loginCheck","outputs":[{"internalType":"string","name":"_loginType","type":"string"},{"internalType":"uint256","name":"_id","type":"uint256"}],"stateMutability":"view","type":"function"},{"inputs":[],"name":"maleStudents","outputs":[{"internalType":"uint256","name":"","type":"uint256"}],"stateMutability":"view","type":"function"},{"inputs":[{"internalType":"uint256","name":"_studentId","type":"uint256"},{"internalType":"string","name":"_name","type":"string"},{"internalType":"uint256","name":"_rollNumber","type":"uint256"},{"internalType":"uint256","name":"_dob","type":"uint256"},{"internalType":"string","name":"_gender","type":"string"}],"name":"modifyPrimaryDetails","outputs":[],"stateMutability":"nonpayable","type":"function"},{"inputs":[{"internalType":"uint256","name":"_studentId","type":"uint256"},{"internalType":"string","name":"_guardianName","type":"string"},{"internalType":"string","name":"_fatherName","type":"string"},{"internalType":"string","name":"_MotherName","type":"string"},{"internalType":"string","name":"_educationFather","type":"string"},{"internalType":"string","name":"_educationMother","type":"string"}],"name":"parentalDetails","outputs":[],"stateMutability":"nonpayable","type":"function"},{"inputs":[{"internalType":"uint256","name":"_studentId","type":"uint256"},{"internalType":"string","name":"_currentAddress","type":"string"},{"internalType":"string","name":"_caste","type":"string"},{"internalType":"string","name":"_nationality","type":"string"}],"name":"personalDetails","outputs":[],"stateMutability":"nonpayable","type":"function"},{"inputs":[{"internalType":"uint256","name":"_rollNumber","type":"uint256"}],"name":"rollNumberToStudentId","outputs":[{"internalType":"uint256","name":"studentId","type":"uint256"}],"stateMutability":"view","type":"function"},{"inputs":[{"internalType":"uint256","name":"_studentId","type":"uint256"},{"internalType":"uint256","name":"_class","type":"uint256"},{"internalType":"string","name":"_email","type":"string"},{"internalType":"uint256","name":"_batch","type":"uint256"}],"name":"schoolDetails","outputs":[],"stateMutability":"nonpayable","type":"function"},{"inputs":[{"internalType":"string","name":"_name","type":"string"},{"internalType":"uint256","name":"_rollnumber","type":"uint256"}],"name":"searchStudent","outputs":[],"stateMutability":"nonpayable","type":"function"},{"inputs":[{"internalType":"uint256","name":"_class","type":"uint256"},{"internalType":"string","name":"_subject","type":"string"},{"internalType":"string","name":"_topic","type":"string"}],"name":"viewAssignment","outputs":[{"internalType":"string","name":"assignmentFile","type":"string"}],"stateMutability":"view","type":"function"},{"inputs":[{"internalType":"uint256","name":"_class","type":"uint256"}],"name":"viewClassTimeTable","outputs":[{"internalType":"string","name":"timeTableFile","type":"string"}],"stateMutability":"view","type":"function"},{"inputs":[{"internalType":"uint256","name":"_class","type":"uint256"}],"name":"viewExamTimeTable","outputs":[{"internalType":"string","name":"timeTableFile","type":"string"}],"stateMutability":"view","type":"function"},{"inputs":[{"internalType":"uint256","name":"_studentId","type":"uint256"},{"internalType":"uint256","name":"_class","type":"uint256"}],"name":"viewMarksCard","outputs":[{"internalType":"string","name":"marksCardFile","type":"string"}],"stateMutability":"view","type":"function"}],"bytecode":"60806040523480156200001157600080fd5b506040516200271b3803806200271b8339810160408190526200003491620000a1565b600080546001600160a01b039485166001600160a01b03199182161790915560018054938516938216939093179092556002805491909316908216179091556003805490911633179055620000eb565b80516001600160a01b03811681146200009c57600080fd5b919050565b600080600060608486031215620000b757600080fd5b620000c28462000084565b9250620000d26020850162000084565b9150620000e26040850162000084565b90509250925092565b61262080620000fb6000396000f3fe608060405234801561001057600080fd5b50600436106101585760003560e01c806380f7cdce116100c3578063b93a69421161007c578063b93a694214610311578063c7c62f6f1461031a578063c7f2bd3a1461032d578063d6e5462714610340578063f851a44014610353578063ff59d5241461037e57600080fd5b806380f7cdce146102815780638322f55614610294578063934ec1fe146102b55780639ae52f0f146102c85780639baffd90146102db5780639bbdf9a8146102ee57600080fd5b80634f3142ce116101155780634f3142ce1461020d5780635f3a3cf11461022257806361920ee1146102355780636bb1c01714610248578063730e56eb1461025b578063737892b21461026e57600080fd5b806306ecab2f1461015d57806306f846cd1461018a5780631937a5ed146101ac57806323415c11146101cc57806329ee6be1146101ee57806341e0c40714610205575b600080fd5b61017061016b366004611a47565b610391565b604051610181959493929190611ab8565b60405180910390f35b61019d610198366004611a47565b610452565b60405161018193929190611b25565b6101bf6101ba366004611b4e565b610502565b6040516101819190611b70565b6101df6101da366004611a47565b610754565b60405161018193929190611b83565b6101f760055481565b604051908152602001610181565b6101f76107f6565b61022061021b366004611c89565b6108a1565b005b610220610230366004611cd8565b61090c565b6101df610243366004611a47565b6109a7565b6101bf610256366004611d58565b610b46565b610220610269366004611dba565b610eaa565b6101f761027c366004611a47565b610f42565b6101bf61028f366004611a47565b610fdd565b6102a76102a2366004611e4b565b611266565b604051610181929190611eae565b6102206102c3366004611ed0565b6112ee565b6102206102d6366004611fa9565b61138c565b6102206102e9366004612006565b6114e4565b6103016102fc366004611a47565b611544565b604051610181949392919061205d565b6101f760045481565b6101bf610328366004611a47565b6115f8565b61022061033b366004611dba565b611804565b61022061034e366004612099565b6118b5565b600354610366906001600160a01b031681565b6040516001600160a01b039091168152602001610181565b61022061038c366004611d58565b611a10565b60035460609081908190819081906001600160a01b031633146103cf5760405162461bcd60e51b81526004016103c6906120dd565b60405180910390fd5b600054604051635b4012d560e01b8152600481018890526001600160a01b0390911690635b4012d590602401600060405180830381865afa158015610418573d6000803e3d6000fd5b505050506040513d6000823e601f3d908101601f191682016040526104409190810190612151565b939a9299509097509550909350915050565b60035460009060609082906001600160a01b031633146104845760405162461bcd60e51b81526004016103c6906120dd565b600054604051631b22fc3160e11b8152600481018690526001600160a01b0390911690633645f86290602401600060405180830381865afa1580156104cd573d6000803e3d6000fd5b505050506040513d6000823e601f3d908101601f191682016040526104f59190810190612215565b9250925092509193909250565b6003546060906001600160a01b0316331461052f5760405162461bcd60e51b81526004016103c6906120dd565b6001546040805163199080b760e11b815290516000926001600160a01b031691633321016e9160048083019260209291908290030181865afa158015610579573d6000803e3d6000fd5b505050506040513d601f19601f8201168201806040525081019061059d9190612264565b9050805b801561071c5760015460405163c7e674f160e01b81526004810183905285916001600160a01b03169063c7e674f190602401602060405180830381865afa1580156105f0573d6000803e3d6000fd5b505050506040513d601f19601f820116820180604052508101906106149190612264565b14801561068b5750600154604051633cd9996960e11b81526004810183905286916001600160a01b0316906379b332d290602401602060405180830381865afa158015610665573d6000803e3d6000fd5b505050506040513d601f19601f820116820180604052508101906106899190612264565b145b1561070a57600154604051636338c89f60e01b8152600481018390526001600160a01b0390911690636338c89f90602401600060405180830381865afa1580156106d9573d6000803e3d6000fd5b505050506040513d6000823e601f3d908101601f19168201604052610701919081019061227d565b9250505061074e565b80610714816122c7565b9150506105a1565b506040518060400160405280601481526020017313585c9adcc818d85c99081b9bdd08199bdd5b9960621b8152509150505b92915050565b600354606090819081906001600160a01b031633146107855760405162461bcd60e51b81526004016103c6906120dd565b6000546040516370cfa98560e01b8152600481018690526001600160a01b03909116906370cfa98590602401600060405180830381865afa1580156107ce573d6000803e3d6000fd5b505050506040513d6000823e601f3d908101601f191682016040526104f591908101906122de565b6003546000906001600160a01b031633146108235760405162461bcd60e51b81526004016103c6906120dd565b60008060009054906101000a90046001600160a01b03166001600160a01b031663e581f9ee6040518163ffffffff1660e01b8152600401602060405180830381865afa158015610877573d6000803e3d6000fd5b505050506040513d601f19601f8201168201806040525081019061089b9190612264565b91505090565b600154604051632798a16760e11b81526001600160a01b0390911690634f3142ce906108d59086908690869060040161235b565b600060405180830381600087803b1580156108ef57600080fd5b505af1158015610903573d6000803e3d6000fd5b50505050505050565b6003546001600160a01b031633146109365760405162461bcd60e51b81526004016103c6906120dd565b600054604051635f3a3cf160e01b81526001600160a01b0390911690635f3a3cf19061096e9088908890889088908890600401612383565b600060405180830381600087803b15801561098857600080fd5b505af115801561099c573d6000803e3d6000fd5b505050505050505050565b600354606090819081906001600160a01b031633146109d85760405162461bcd60e51b81526004016103c6906120dd565b600154604051630a18baf360e21b8152600481018690526000916001600160a01b031690632862ebcc90602401600060405180830381865afa158015610a22573d6000803e3d6000fd5b505050506040513d6000823e601f3d908101601f19168201604052610a4a919081019061227d565b600154604051635eb86b9560e01b8152600481018890529192506000916001600160a01b0390911690635eb86b9590602401600060405180830381865afa158015610a99573d6000803e3d6000fd5b505050506040513d6000823e601f3d908101601f19168201604052610ac1919081019061227d565b60015460405163ecde140560e01b8152600481018990529192506000916001600160a01b039091169063ecde140590602401600060405180830381865afa158015610b10573d6000803e3d6000fd5b505050506040513d6000823e601f3d908101601f19168201604052610b38919081019061227d565b929791965091945092505050565b6003546060906001600160a01b03163314610b735760405162461bcd60e51b81526004016103c6906120dd565b6001546040805163e6bb280760e01b815290516000926001600160a01b03169163e6bb28079160048083019260209291908290030181865afa158015610bbd573d6000803e3d6000fd5b505050506040513d601f19601f82011682018060405250810190610be19190612264565b9050805b8015610e7157600154604051637dfa364960e01b81526004810183905287916001600160a01b031690637dfa364990602401602060405180830381865afa158015610c34573d6000803e3d6000fd5b505050506040513d601f19601f82011682018060405250810190610c589190612264565b03610e5f5784604051602001610c6e91906123ba565b60408051808303601f19018152908290528051602090910120600154630a18baf360e21b83526004830184905290916001600160a01b0390911690632862ebcc90602401600060405180830381865afa158015610ccf573d6000803e3d6000fd5b505050506040513d6000823e601f3d908101601f19168201604052610cf7919081019061227d565b604051602001610d0791906123ba565b6040516020818303038152906040528051906020012003610e5f57600154604051635eb86b9560e01b8152600481018390526001600160a01b0390911690635eb86b9590602401600060405180830381865afa158015610d6b573d6000803e3d6000fd5b505050506040513d6000823e601f3d908101601f19168201604052610d93919081019061227d565b604051602001610da391906123ba565b6040516020818303038152906040528051906020012084604051602001610dca91906123ba565b6040516020818303038152906040528051906020012003610e5f5760015460405163ecde140560e01b8152600481018390526001600160a01b039091169063ecde140590602401600060405180830381865afa158015610e2e573d6000803e3d6000fd5b505050506040513d6000823e601f3d908101601f19168201604052610e56919081019061227d565b92505050610ea3565b80610e69816122c7565b915050610be5565b5060405180604001604052806014815260200173105cdcda59db9b595b9d081b9bdd08199bdd5b9960621b8152509150505b9392505050565b6003546001600160a01b03163314610ed45760405162461bcd60e51b81526004016103c6906120dd565b60005460405163730e56eb60e01b81526001600160a01b039091169063730e56eb90610f0a9087908790879087906004016123d6565b600060405180830381600087803b158015610f2457600080fd5b505af1158015610f38573d6000803e3d6000fd5b5050505050505050565b6003546000906001600160a01b03163314610f6f5760405162461bcd60e51b81526004016103c6906120dd565b600080546040516339bc495960e11b8152600481018590526001600160a01b039091169063737892b290602401602060405180830381865afa158015610fb9573d6000803e3d6000fd5b505050506040513d601f19601f82011682018060405250810190610ea39190612264565b6003546060906001600160a01b0316331461100a5760405162461bcd60e51b81526004016103c6906120dd565b6001546040805163f57c649160e01b815290516000926001600160a01b03169163f57c64919160048083019260209291908290030181865afa158015611054573d6000803e3d6000fd5b505050506040513d601f19601f820116820180604052508101906110789190612264565b9050805b8015611233576001546040516369d5213b60e01b81526004810183905285916001600160a01b0316906369d5213b90602401602060405180830381865afa1580156110cb573d6000803e3d6000fd5b505050506040513d601f19601f820116820180604052508101906110ef9190612264565b1480156111a2575060408051600081526020810191829052805182206001546361590d5560e01b90935260248201849052916001600160a01b0316906361590d5590604401600060405180830381865afa158015611151573d6000803e3d6000fd5b505050506040513d6000823e601f3d908101601f19168201604052611179919081019061227d565b60405160200161118991906123ba565b6040516020818303038152906040528051906020012014155b1561122157600154604051634273db4960e11b8152600481018390526001600160a01b03909116906384e7b692906024015b600060405180830381865afa1580156111f1573d6000803e3d6000fd5b505050506040513d6000823e601f3d908101601f19168201604052611219919081019061227d565b949350505050565b8061122b816122c7565b91505061107c565b5050604080518082019091526014815273151a5b59481d18589b19481b9bdd08199bdd5b9960621b602082015292915050565b6002546040516341917aab60e11b81526060916000916001600160a01b0390911690638322f5569061129e9087908790600401612415565b600060405180830381865afa1580156112bb573d6000803e3d6000fd5b505050506040513d6000823e601f3d908101601f191682016040526112e3919081019061243a565b909590945092505050565b6003546001600160a01b031633146113185760405162461bcd60e51b81526004016103c6906120dd565b6000546040516349a760ff60e11b81526001600160a01b039091169063934ec1fe9061135290899089908990899089908990600401612480565b600060405180830381600087803b15801561136c57600080fd5b505af1158015611380573d6000803e3d6000fd5b50505050505050505050565b6003546001600160a01b031633146113b65760405162461bcd60e51b81526004016103c6906120dd565b604051636d616c6560e01b602082015260240160405160208183030381529060405280519060200120816040516020016113f091906123ba565b6040516020818303038152906040528051906020012003611421576004546114199060016124f4565b600455611433565b60055461142f9060016124f4565b6005555b60008054604051639ae52f0f60e01b81526001600160a01b0390911690639ae52f0f9061146a90889088908890889060040161205d565b6020604051808303816000875af1158015611489573d6000803e3d6000fd5b505050506040513d601f19601f820116820180604052508101906114ad9190612264565b905082817fefa334500ec19c83cfe9e2bc1e0df024adb6b0f70d1b940d5045d94ab072f55c60405160405180910390a35050505050565b6003546001600160a01b0316331461150e5760405162461bcd60e51b81526004016103c6906120dd565b6000546040516309baffd960e41b81526001600160a01b0390911690639baffd9090610f0a90879087908790879060040161250c565b600354606090600090819083906001600160a01b031633146115785760405162461bcd60e51b81526004016103c6906120dd565b600054604051630c3a356b60e11b8152600481018790526001600160a01b03909116906318746ad690602401600060405180830381865afa1580156115c1573d6000803e3d6000fd5b505050506040513d6000823e601f3d908101601f191682016040526115e9919081019061253c565b93509350935093509193509193565b6003546060906001600160a01b031633146116255760405162461bcd60e51b81526004016103c6906120dd565b6001546040805163f57c649160e01b815290516000926001600160a01b03169163f57c64919160048083019260209291908290030181865afa15801561166f573d6000803e3d6000fd5b505050506040513d601f19601f820116820180604052508101906116939190612264565b9050805b8015611233576001546040516369d5213b60e01b81526004810183905285916001600160a01b0316906369d5213b90602401602060405180830381865afa1580156116e6573d6000803e3d6000fd5b505050506040513d601f19601f8201168201806040525081019061170a9190612264565b1480156117bc575060408051600081526020810191829052805182206001546361590d5560e01b90935260248201849052916001600160a01b0316906361590d5590604401600060405180830381865afa15801561176c573d6000803e3d6000fd5b505050506040513d6000823e601f3d908101601f19168201604052611794919081019061227d565b6040516020016117a491906123ba565b60405160208183030381529060405280519060200120145b156117f257600154604051634273db4960e11b8152600481018390526001600160a01b03909116906384e7b692906024016111d4565b806117fc816122c7565b915050611697565b6001546040516363f95e9d60e11b81526000916001600160a01b03169063c7f2bd3a9061183b9088908890889088906004016123d6565b6020604051808303816000875af115801561185a573d6000803e3d6000fd5b505050506040513d601f19601f8201168201806040525081019061187e9190612264565b905084817f4ed08bee6cb39c3e3cefe79fd761cdb11f4b6ddaacd565c5abc7fd2cdb11a8d860405160405180910390a35050505050565b6003546001600160a01b031633146118df5760405162461bcd60e51b81526004016103c6906120dd565b60006118e96107f6565b905060015b818111611a0a5760008054604051630c3a356b60e11b81526004810184905282916001600160a01b0316906318746ad690602401600060405180830381865afa15801561193f573d6000803e3d6000fd5b505050506040513d6000823e601f3d908101601f19168201604052611967919081019061253c565b5050915091508560405160200161197e91906123ba565b60405160208183030381529060405280519060200120826040516020016119a591906123ba565b60405160208183030381529060405280519060200120036119f5578481036119f557604051819084907f78a5f595baa9b25b7a730211c5cf18e46d8c54f6cd7558ab36ff8ef5cf76d19e90600090a35b50508080611a02906125a6565b9150506118ee565b50505050565b600154604051600162298ab760e21b031981526001600160a01b039091169063ff59d524906108d5908690869086906004016125bf565b600060208284031215611a5957600080fd5b5035919050565b60005b83811015611a7b578181015183820152602001611a63565b83811115611a0a5750506000910152565b60008151808452611aa4816020860160208601611a60565b601f01601f19169290920160200192915050565b60a081526000611acb60a0830188611a8c565b8281036020840152611add8188611a8c565b90508281036040840152611af18187611a8c565b90508281036060840152611b058186611a8c565b90508281036080840152611b198185611a8c565b98975050505050505050565b838152606060208201526000611b3e6060830185611a8c565b9050826040830152949350505050565b60008060408385031215611b6157600080fd5b50508035926020909101359150565b602081526000610ea36020830184611a8c565b606081526000611b966060830186611a8c565b8281036020840152611ba88186611a8c565b90508281036040840152611bbc8185611a8c565b9695505050505050565b634e487b7160e01b600052604160045260246000fd5b604051601f8201601f191681016001600160401b0381118282101715611c0457611c04611bc6565b604052919050565b60006001600160401b03821115611c2557611c25611bc6565b50601f01601f191660200190565b600082601f830112611c4457600080fd5b8135611c57611c5282611c0c565b611bdc565b818152846020838601011115611c6c57600080fd5b816020850160208301376000918101602001919091529392505050565b600080600060608486031215611c9e57600080fd5b833592506020840135915060408401356001600160401b03811115611cc257600080fd5b611cce86828701611c33565b9150509250925092565b600080600080600060a08688031215611cf057600080fd5b8535945060208601356001600160401b0380821115611d0e57600080fd5b611d1a89838a01611c33565b955060408801359450606088013593506080880135915080821115611d3e57600080fd5b50611d4b88828901611c33565b9150509295509295909350565b600080600060608486031215611d6d57600080fd5b8335925060208401356001600160401b0380821115611d8b57600080fd5b611d9787838801611c33565b93506040860135915080821115611dad57600080fd5b50611cce86828701611c33565b60008060008060808587031215611dd057600080fd5b8435935060208501356001600160401b0380821115611dee57600080fd5b611dfa88838901611c33565b94506040870135915080821115611e1057600080fd5b611e1c88838901611c33565b93506060870135915080821115611e3257600080fd5b50611e3f87828801611c33565b91505092959194509250565b60008060408385031215611e5e57600080fd5b82356001600160401b0380821115611e7557600080fd5b611e8186838701611c33565b93506020850135915080821115611e9757600080fd5b50611ea485828601611c33565b9150509250929050565b604081526000611ec16040830185611a8c565b90508260208301529392505050565b60008060008060008060c08789031215611ee957600080fd5b8635955060208701356001600160401b0380821115611f0757600080fd5b611f138a838b01611c33565b96506040890135915080821115611f2957600080fd5b611f358a838b01611c33565b95506060890135915080821115611f4b57600080fd5b611f578a838b01611c33565b94506080890135915080821115611f6d57600080fd5b611f798a838b01611c33565b935060a0890135915080821115611f8f57600080fd5b50611f9c89828a01611c33565b9150509295509295509295565b60008060008060808587031215611fbf57600080fd5b84356001600160401b0380821115611fd657600080fd5b611fe288838901611c33565b955060208701359450604087013593506060870135915080821115611e3257600080fd5b6000806000806080858703121561201c57600080fd5b843593506020850135925060408501356001600160401b0381111561204057600080fd5b61204c87828801611c33565b949793965093946060013593505050565b6080815260006120706080830187611a8c565b856020840152846040840152828103606084015261208e8185611a8c565b979650505050505050565b600080604083850312156120ac57600080fd5b82356001600160401b038111156120c257600080fd5b6120ce85828601611c33565b95602094909401359450505050565b6020808252601590820152742cb7ba9030b932903737ba103a34329030b236b4b760591b604082015260600190565b600082601f83011261211d57600080fd5b815161212b611c5282611c0c565b81815284602083860101111561214057600080fd5b611219826020830160208701611a60565b600080600080600060a0868803121561216957600080fd5b85516001600160401b038082111561218057600080fd5b61218c89838a0161210c565b965060208801519150808211156121a257600080fd5b6121ae89838a0161210c565b955060408801519150808211156121c457600080fd5b6121d089838a0161210c565b945060608801519150808211156121e657600080fd5b6121f289838a0161210c565b9350608088015191508082111561220857600080fd5b50611d4b8882890161210c565b60008060006060848603121561222a57600080fd5b8351925060208401516001600160401b0381111561224757600080fd5b6122538682870161210c565b925050604084015190509250925092565b60006020828403121561227657600080fd5b5051919050565b60006020828403121561228f57600080fd5b81516001600160401b038111156122a557600080fd5b6112198482850161210c565b634e487b7160e01b600052601160045260246000fd5b6000816122d6576122d66122b1565b506000190190565b6000806000606084860312156122f357600080fd5b83516001600160401b038082111561230a57600080fd5b6123168783880161210c565b9450602086015191508082111561232c57600080fd5b6123388783880161210c565b9350604086015191508082111561234e57600080fd5b50611cce8682870161210c565b83815282602082015260606040820152600061237a6060830184611a8c565b95945050505050565b85815260a06020820152600061239c60a0830187611a8c565b8560408401528460608401528281036080840152611b198185611a8c565b600082516123cc818460208701611a60565b9190910192915050565b8481526080602082015260006123ef6080830186611a8c565b82810360408401526124018186611a8c565b9050828103606084015261208e8185611a8c565b6040815260006124286040830185611a8c565b828103602084015261237a8185611a8c565b6000806040838503121561244d57600080fd5b82516001600160401b0381111561246357600080fd5b61246f8582860161210c565b925050602083015190509250929050565b86815260c06020820152600061249960c0830188611a8c565b82810360408401526124ab8188611a8c565b905082810360608401526124bf8187611a8c565b905082810360808401526124d38186611a8c565b905082810360a08401526124e78185611a8c565b9998505050505050505050565b60008219821115612507576125076122b1565b500190565b84815283602082015260806040820152600061252b6080830185611a8c565b905082606083015295945050505050565b6000806000806080858703121561255257600080fd5b84516001600160401b038082111561256957600080fd5b6125758883890161210c565b95506020870151945060408701519350606087015191508082111561259957600080fd5b50611e3f8782880161210c565b6000600182016125b8576125b86122b1565b5060010190565b8381526060602082015260006125d86060830185611a8c565b8281036040840152611bbc8185611a8c56fea26469706673582212201615bc3578253e8e08467492e715c295c819230d5ca3a3390f497973427c1e2d64736f6c634300080e0033","bytecodeSha1":"5dbdf840a96da50b877352883aca4c436d980b29","compiler":{"evm_version":"istanbul","optimizer":{"enabled":true,"runs":200},"version":"0.8.14+commit.80d49f37"},"contractName":"SchoolAdmin","language":"Solidity","natspec":{"kind":"dev","methods":{},"version":1},"opcodes":"PUSH1 0x80 PUSH1 0x40 MSTORE CALLVALUE DUP1 ISZERO PUSH2 0x10 JUMPI PUSH1 0x0 DUP1 REVERT JUMPDEST POP PUSH1 0x4 CALLDATASIZE LT PUSH2 0x158 JUMPI PUSH1 0x0 CALLDATALOAD PUSH1 0xE0 SHR DUP1 PUSH4 0x80F7CDCE GT PUSH2 0xC3 JUMPI DUP1 PUSH4 0xB93A6942 GT PUSH2 0x7C JUMPI DUP1 PUSH4 0xB93A6942 EQ PUSH2 0x311 JUMPI DUP1 PUSH4 0xC7C62F6F EQ PUSH2 0x31A JUMPI DUP1 PUSH4 0xC7F2BD3A EQ PUSH2 0x32D JUMPI DUP1 PUSH4 0xD6E54627 EQ PUSH2 0x340 JUMPI DUP1 PUSH4 0xF851A440 EQ PUSH2 0x353 JUMPI DUP1 PUSH4 0xFF59D524 EQ PUSH2 0x37E JUMPI PUSH1 0x0 DUP1 REVERT JUMPDEST DUP1 PUSH4 0x80F7CDCE EQ PUSH2 0x281 JUMPI DUP1 PUSH4 0x8322F556 EQ PUSH2 0x294 JUMPI DUP1 PUSH4 0x934EC1FE EQ PUSH2 0x2B5 JUMPI DUP1 PUSH4 0x9AE52F0F EQ PUSH2 0x2C8 JUMPI DUP1 PUSH4 0x9BAFFD90 EQ PUSH2 0x2DB JUMPI DUP1 PUSH4 0x9BBDF9A8 EQ PUSH2 0x2EE JUMPI PUSH1 0x0 DUP1 REVERT JUMPDEST DUP1 PUSH4 0x4F3142CE GT PUSH2 0x115 JUMPI DUP1 PUSH4 0x4F3142CE EQ PUSH2 0x20D JUMPI DUP1 PUSH4 0x5F3A3CF1 EQ PUSH2 0x222 JUMPI DUP1 PUSH4 0x61920EE1 EQ PUSH2 0x235 JUMPI DUP1 PUSH4 0x6BB1C017 EQ PUSH2 0x248 JUMPI DUP1 PUSH4 0x730E56EB EQ PUSH2 0x25B JUMPI DUP1 PUSH4 0x737892B2 EQ PUSH2 0x26E JUMPI PUSH1 0x0 DUP1 REVERT JUMPDEST DUP1 PUSH4 0x6ECAB2F EQ PUSH2 0x15D JUMPI DUP1 PUSH4 0x6F846CD EQ PUSH2 0x18A JUMPI DUP1 PUSH4 0x1937A5ED EQ PUSH2 0x1AC JUMPI DUP1 PUSH4 0x23415C11 EQ PUSH2 0x1CC JUMPI DUP1 PUSH4 0x29EE6BE1 EQ PUSH2 0x1EE JUMPI DUP1 PUSH4 0x41E0C407 EQ PUSH2 0x205 JUMPI JUMPDEST PUSH1 0x0 DUP1 REVERT JUMPDEST PUSH2 0x170 PUSH2 0x16B CALLDATASIZE PUSH1 0x4 PUSH2 0x1A47 JUMP JUMPDEST PUSH2 0x391 JUMP JUMPDEST PUSH1 0x40 MLOAD PUSH2 0x181 SWAP6 SWAP5 SWAP4 SWAP3 SWAP2 SWAP1 PUSH2 0x1AB8 JUMP JUMPDEST PUSH1 0x40 MLOAD DUP1 SWAP2 SUB SWAP1 RETURN JUMPDEST PUSH2 0x19D PUSH2 0x198 CALLDATASIZE PUSH1 0x4 PUSH2 0x1A47 JUMP JUMPDEST PUSH2 0x452 JUMP JUMPDEST PUSH1 0x40 MLOAD PUSH2 0x181 SWAP4 SWAP3 SWAP2 SWAP1 PUSH2 0x1B25 JUMP JUMPDEST PUSH2 0x1BF PUSH2 0x1BA CALLDATASIZE PUSH1 0x4 PUSH2 0x1B4E JUMP JUMPDEST PUSH2 0x502 JUMP JUMPDEST PUSH1 0x40 MLOAD PUSH2 0x181 SWAP2 SWAP1 PUSH2 0x1B70 JUMP JUMPDEST PUSH2 0x1DF PUSH2 0x1DA CALLDATASIZE PUSH1 0x4 PUSH2 0x1A47 JUMP JUMPDEST PUSH2 0x754 JUMP JUMPDEST PUSH1 0x40 MLOAD PUSH2 0x181 SWAP4 SWAP3 SWAP2 SWAP1 PUSH2 0x1B83 JUMP JUMPDEST PUSH2 0x1F7 PUSH1 0x5 SLOAD DUP2 JUMP JUMPDEST PUSH1 0x40 MLOAD SWAP1 DUP2 MSTORE PUSH1 0x20 ADD PUSH2 0x181 JUMP JUMPDEST PUSH2 0x1F7 PUSH2 0x7F6 JUMP JUMPDEST PUSH2 0x220 PUSH2 0x21B CALLDATASIZE PUSH1 0x4 PUSH2 0x1C89 JUMP JUMPDEST PUSH2 0x8A1 JUMP JUMPDEST STOP JUMPDEST PUSH2 0x220 PUSH2 0x230 CALLDATASIZE PUSH1 0x4 PUSH2 0x1CD8 JUMP JUMPDEST PUSH2 0x90C JUMP JUMPDEST PUSH2 0x1DF PUSH2 0x243 CALLDATASIZE PUSH1 0x4 PUSH2 0x1A47 JUMP JUMPDEST PUSH2 0x9A7 JUMP JUMPDEST PUSH2 0x1BF PUSH2 0x256 CALLDATASIZE PUSH1 0x4 PUSH2 0x1D58 JUMP JUMPDEST PUSH2 0xB46 JUMP JUMPDEST PUSH2 0x220 PUSH2 0x269 CALLDATASIZE PUSH1 0x4 PUSH2 0x1DBA JUMP JUMPDEST PUSH2 0xEAA JUMP JUMPDEST PUSH2 0x1F7 PUSH2 0x27C CALLDATASIZE PUSH1 0x4 PUSH2 0x1A47 JUMP JUMPDEST PUSH2 0xF42 JUMP JUMPDEST PUSH2 0x1BF PUSH2 0x28F CALLDATASIZE PUSH1 0x4 PUSH2 0x1A47 JUMP JUMPDEST PUSH2 0xFDD JUMP JUMPDEST PUSH2 0x2A7 PUSH2 0x2A2 CALLDATASIZE PUSH1 0x4 PUSH2 0x1E4B JUMP JUMPDEST PUSH2 0x1266 JUMP JUMPDEST PUSH1 0x40 MLOAD PUSH2 0x181 SWAP3 SWAP2 SWAP1 PUSH2 0x1EAE JUMP JUMPDEST PUSH2 0x220 PUSH2 0x2C3 CALLDATASIZE PUSH1 0x4 PUSH2 0x1ED0 JUMP JUMPDEST PUSH2 0x12EE JUMP JUMPDEST PUSH2 0x220 PUSH2 0x2D6 CALLDATASIZE PUSH1 0x4 PUSH2 0x1FA9 JUMP JUMPDEST PUSH2 0x138C JUMP JUMPDEST PUSH2 0x220 PUSH2 0x2E9 CALLDATASIZE PUSH1 0x4 PUSH2 0x2006 JUMP JUMPDEST PUSH2 0x14E4 JUMP JUMPDEST PUSH2 0x301 PUSH2 0x2FC CALLDATASIZE PUSH1 0x4 PUSH2 0x1A47 JUMP JUMPDEST PUSH2 0x1544 JUMP JUMPDEST PUSH1 0x40 MLOAD PUSH2 0x181 SWAP5 SWAP4 SWAP3 SWAP2 SWAP1 PUSH2 0x205D JUMP JUMPDEST PUSH2 0x1F7 PUSH1 0x4 SLOAD DUP2 JUMP JUMPDEST PUSH2 0x1BF PUSH2 0x328 CALLDATASIZE PUSH1 0x4 PUSH2 0x1A47 JUMP JUMPDEST PUSH2 0x15F8 JUMP JUMPDEST PUSH2 0x220 PUSH2 0x33B CALLDATASIZE PUSH1 0x4 PUSH2 0x1DBA JUMP JUMPDEST PUSH2 0x1804 JUMP JUMPDEST PUSH2 0x220 PUSH2 0x34E CALLDATASIZE PUSH1 0x4 PUSH2 0x2099 JUMP JUMPDEST PUSH2 0x18B5 JUMP JUMPDEST PUSH1 0x3 SLOAD PUSH2 0x366 SWAP1 PUSH1 0x1 PUSH1 0x1 PUSH1 0xA0 SHL SUB AND DUP2 JUMP JUMPDEST PUSH1 0x40 MLOAD PUSH1 0x1 PUSH1 0x1 PUSH1 0xA0 SHL SUB SWAP1 SWAP2 AND DUP2 MSTORE PUSH1 0x20 ADD PUSH2 0x181 JUMP JUMPDEST PUSH2 0x220 PUSH2 0x38C CALLDATASIZE PUSH1 0x4 PUSH2 0x1D58 JUMP JUMPDEST PUSH2 0x1A10 JUMP JUMPDEST PUSH1 0x3 SLOAD PUSH1 0x60 SWAP1 DUP2 SWAP1 DUP2 SWAP1 DUP2 SWAP1 DUP2 SWAP1 PUSH1 0x1 PUSH1 0x1 PUSH1 0xA0 SHL SUB AND CALLER EQ PUSH2 0x3CF JUMPI PUSH1 0x40 MLOAD PUSH3 0x461BCD PUSH1 0xE5 SHL DUP2 MSTORE PUSH1 0x4 ADD PUSH2 0x3C6 SWAP1 PUSH2 0x20DD JUMP JUMPDEST PUSH1 0x40 MLOAD DUP1 SWAP2 SUB SWAP1 REVERT JUMPDEST PUSH1 0x0 SLOAD PUSH1 0x40 MLOAD PUSH4 0x5B4012D5 PUSH1 0xE0 SHL DUP2 MSTORE PUSH1 0x4 DUP2 ADD DUP9 SWAP1 MSTORE PUSH1 0x1 PUSH1 0x1 PUSH1 0xA0 SHL SUB SWAP1 SWAP2 AND SWAP1 PUSH4 0x5B4012D5 SWAP1 PUSH1 0x24 ADD PUSH1 0x0 PUSH1 0x40 MLOAD DUP1 DUP4 SUB DUP2 DUP7 GAS STATICCALL ISZERO DUP1 ISZERO PUSH2 0x418 JUMPI RETURNDATASIZE PUSH1 0x0 DUP1 RETURNDATACOPY RETURNDATASIZE PUSH1 0x0 REVERT JUMPDEST POP POP POP POP PUSH1 0x40 MLOAD RETURNDATASIZE PUSH1 0x0 DUP3 RETURNDATACOPY PUSH1 0x1F RETURNDATASIZE SWAP1 DUP2 ADD PUSH1 0x1F NOT AND DUP3 ADD PUSH1 0x40 MSTORE PUSH2 0x440 SWAP2 SWAP1 DUP2 ADD SWAP1 PUSH2 0x2151 JUMP JUMPDEST SWAP4 SWAP11 SWAP3 SWAP10 POP SWAP1 SWAP8 POP SWAP6 POP SWAP1 SWAP4 POP SWAP2 POP POP JUMP JUMPDEST PUSH1 0x3 SLOAD PUSH1 0x0 SWAP1 PUSH1 0x60 SWAP1 DUP3 SWAP1 PUSH1 0x1 PUSH1 0x1 PUSH1 0xA0 SHL SUB AND CALLER EQ PUSH2 0x484 JUMPI PUSH1 0x40 MLOAD PUSH3 0x461BCD PUSH1 0xE5 SHL DUP2 MSTORE PUSH1 0x4 ADD PUSH2 0x3C6 SWAP1 PUSH2 0x20DD JUMP JUMPDEST PUSH1 0x0 SLOAD PUSH1 0x40 MLOAD PUSH4 0x1B22FC31 PUSH1 0xE1 SHL DUP2 MSTORE PUSH1 0x4 DUP2 ADD DUP7 SWAP1 MSTORE PUSH1 0x1 PUSH1 0x1 PUSH1 0xA0 SHL SUB SWAP1 SWAP2 AND SWAP1 PUSH4 0x3645F862 SWAP1 PUSH1 0x24 ADD PUSH1 0x0 PUSH1 0x40 MLOAD DUP1 DUP4 SUB DUP2 DUP7 GAS STATICCALL ISZERO DUP1 ISZERO PUSH2 0x4CD JUMPI RETURNDATASIZE PUSH1 0x0 DUP1 RETURNDATACOPY RETURNDATASIZE PUSH1 0x0 REVERT JUMPDEST POP POP POP POP PUSH1 0x40 MLOAD RETURNDATASIZE PUSH1 0x0 DUP3 RETURNDATACOPY PUSH1 0x1F RETURNDATASIZE SWAP1 DUP2 ADD PUSH1 0x1F NOT AND DUP3 ADD PUSH1 0x40 MSTORE PUSH2 0x4F5 SWAP2 SWAP1 DUP2 ADD SWAP1 PUSH2 0x2215 JUMP JUMPDEST SWAP3 POP SWAP3 POP SWAP3 POP SWAP2 SWAP4 SWAP1 SWAP3 POP JUMP JUMPDEST PUSH1 0x3 SLOAD PUSH1 0x60 SWAP1 PUSH1 0x1 PUSH1 0x1 PUSH1 0xA0 SHL SUB AND CALLER EQ PUSH2 0x52F JUMPI PUSH1 0x40 MLOAD PUSH3 0x461BCD PUSH1 0xE5 SHL DUP2 MSTORE PUSH1 0x4 ADD PUSH2 0x3C6 SWAP1 PUSH2 0x20DD JUMP JUMPDEST PUSH1 0x1 SLOAD PUSH1 0x40 DUP1 MLOAD PUSH4 0x199080B7 PUSH1 0xE1 SHL DUP2 MSTORE SWAP1 MLOAD PUSH1 0x0 SWAP3 PUSH1 0x1 PUSH1 0x1 PUSH1 0xA0 SHL SUB AND SWAP2 PUSH4 0x3321016E SWAP2 PUSH1 0x4 DUP1 DUP4 ADD SWAP3 PUSH1 0x20 SWAP3 SWAP2 SWAP1 DUP3 SWAP1 SUB ADD DUP2 DUP7 GAS STATICCALL ISZERO DUP1 ISZERO PUSH2 0x579 JUMPI RETURNDATASIZE PUSH1 0x0 DUP1 RETURNDATACOPY RETURNDATASIZE PUSH1 0x0 REVERT JUMPDEST POP POP POP POP PUSH1 0x40 MLOAD RETURNDATASIZE PUSH1 0x1F NOT PUSH1 0x1F DUP3 ADD AND DUP3 ADD DUP1 PUSH1 0x40 MSTORE POP DUP2 ADD SWAP1 PUSH2 0x59D SWAP2 SWAP1 PUSH2 0x2264 JUMP JUMPDEST SWAP1 POP DUP1 JUMPDEST DUP1 ISZERO PUSH2 0x71C JUMPI PUSH1 0x1 SLOAD PUSH1 0x40 MLOAD PUSH4 0xC7E674F1 PUSH1 0xE0 SHL DUP2 MSTORE PUSH1 0x4 DUP2 ADD DUP4 SWAP1 MSTORE DUP6 SWAP2 PUSH1 0x1 PUSH1 0x1 PUSH1 0xA0 SHL SUB AND SWAP1 PUSH4 0xC7E674F1 SWAP1 PUSH1 0x24 ADD PUSH1 0x20 PUSH1 0x40 MLOAD DUP1 DUP4 SUB DUP2 DUP7 GAS STATICCALL ISZERO DUP1 ISZERO PUSH2 0x5F0 JUMPI RETURNDATASIZE PUSH1 0x0 DUP1 RETURNDATACOPY RETURNDATASIZE PUSH1 0x0 REVERT JUMPDEST POP POP POP POP PUSH1 0x40 MLOAD RETURNDATASIZE PUSH1 0x1F NOT PUSH1 0x1F DUP3 ADD AND DUP3 ADD DUP1 PUSH1 0x40 MSTORE POP DUP2 ADD SWAP1 PUSH2 0x614 SWAP2 SWAP1 PUSH2 0x2264 JUMP JUMPDEST EQ DUP1 ISZERO PUSH2 0x68B JUMPI POP PUSH1 0x1 SLOAD PUSH1 0x40 MLOAD PUSH4 0x3CD99969 PUSH1 0xE1 SHL DUP2 MSTORE PUSH1 0x4 DUP2 ADD DUP4 SWAP1 MSTORE DUP7 SWAP2 PUSH1 0x1 PUSH1 0x1 PUSH1 0xA0 SHL SUB AND SWAP1 PUSH4 0x79B332D2 SWAP1 PUSH1 0x24 ADD PUSH1 0x20 PUSH1 0x40 MLOAD DUP1 DUP4 SUB DUP2 DUP7 GAS STATICCALL ISZERO DUP1 ISZERO PUSH2 0x665 JUMPI RETURNDATASIZE PUSH1 0x0 DUP1 RETURNDATACOPY RETURNDATASIZE PUSH1 0x0 REVERT JUMPDEST POP POP POP POP PUSH1 0x40 MLOAD RETURNDATASIZE PUSH1 0x1F NOT PUSH1 0x1F DUP3 ADD AND DUP3 ADD DUP1 PUSH1 0x40 MSTORE POP DUP2 ADD SWAP1 PUSH2 0x689 SWAP2 SWAP1 PUSH2 0x2264 JUMP JUMPDEST EQ JUMPDEST ISZERO PUSH2 0x70A JUMPI PUSH1 0x1 SLOAD PUSH1 0x40 MLOAD PUSH4 0x6338C89F PUSH1 0xE0 SHL DUP2 MSTORE PUSH1 0x4 DUP2 ADD DUP4 SWAP1 MSTORE PUSH1 0x1 PUSH1 0x1 PUSH1 0xA0 SHL SUB SWAP1 SWAP2 AND SWAP1 PUSH4 0x6338C89F SWAP1 PUSH1 0x24 ADD PUSH1 0x0 PUSH1 0x40 MLOAD DUP1 DUP4 SUB DUP2 DUP7 GAS STATICCALL ISZERO DUP1 ISZERO PUSH2 0x6D9 JUMPI RETURNDATASIZE PUSH1 0x0 DUP1 RETURNDATACOPY RETURNDATASIZE PUSH1 0x0 REVERT JUMPDEST POP POP POP POP PUSH1 0x40 MLOAD RETURNDATASIZE PUSH1 0x0 DUP3 RETURNDATACOPY PUSH1 0x1F RETURNDATASIZE SWAP1 DUP2 ADD PUSH1 0x1F NOT AND DUP3 ADD PUSH1 0x40 MSTORE PUSH2 0x701 SWAP2 SWAP1 DUP2 ADD SWAP1 PUSH2 0x227D JUMP JUMPDEST SWAP3 POP POP POP PUSH2 0x74E JUMP JUMPDEST DUP1 PUSH2 0x714 DUP2 PUSH2 0x22C7 JUMP JUMPDEST SWAP2 POP POP PUSH2 0x5A1 JUMP JUMPDEST POP PUSH1 0x40 MLOAD DUP1 PUSH1 0x40 ADD PUSH1 0x40 MSTORE DUP1 PUSH1 0x14 DUP2 MSTORE PUSH1 0x20 ADD PUSH20 0x13585C9ADCC818D85C99081B9BDD08199BDD5B99 PUSH1 0x62 SHL DUP2 MSTORE POP SWAP2 POP POP JUMPDEST SWAP3 SWAP2 POP POP JUMP JUMPDEST PUSH1 0x3 SLOAD PUSH1 0x60 SWAP1 DUP2 SWAP1 DUP2 SWAP1 PUSH1 0x1 PUSH1 0x1 PUSH1 0xA0 SHL SUB AND CALLER EQ PUSH2 0x785 JUMPI PUSH1 0x40 MLOAD PUSH3 0x461BCD PUSH1 0xE5 SHL DUP2 MSTORE PUSH1 0x4 ADD PUSH2 0x3C6 SWAP1 PUSH2 0x20DD JUMP JUMPDEST PUSH1 0x0 SLOAD PUSH1 0x40 MLOAD PUSH4 0x70CFA985 PUSH1 0xE0 SHL DUP2 MSTORE PUSH1 0x4 DUP2 ADD DUP7 SWAP1 MSTORE PUSH1 0x1 PUSH1 0x1 PUSH1 0xA0 SHL SUB SWAP1 SWAP2 AND SWAP1 PUSH4 0x70CFA985 SWAP1 PUSH1 0x24 ADD PUSH1 0x0 PUSH1 0x40 MLOAD DUP1 DUP4 SUB DUP2 DUP7 GAS STATICCALL ISZERO DUP1 ISZERO PUSH2 0x7CE JUMPI RETURNDATASIZE PUSH1 0x0 DUP1 RETURNDATACOPY RETURNDATASIZE PUSH1 0x0 REVERT JUMPDEST POP POP POP POP PUSH1 0x40 MLOAD RETURNDATASIZE PUSH1 0x0 DUP3 RETURNDATACOPY PUSH1 0x1F RETURNDATASIZE SWAP1 DUP2 ADD PUSH1 0x1F NOT AND DUP3 ADD PUSH1 0x40 MSTORE PUSH2 0x4F5 SWAP2 SWAP1 DUP2 ADD SWAP1 PUSH2 0x22DE JUMP JUMPDEST PUSH1 0x3 SLOAD PUSH1 0x0 SWAP1 PUSH1 0x1 PUSH1 0x1 PUSH1 0xA0 SHL SUB AND CALLER EQ PUSH2 0x823 JUMPI PUSH1 0x40 MLOAD PUSH3 0x461BCD PUSH1 0xE5 SHL DUP2 MSTORE PUSH1 0x4 ADD PUSH2 0x3C6 SWAP1 PUSH2 0x20DD JUMP JUMPDEST PUSH1 0x0 DUP1 PUSH1 0x0 SWAP1 SLOAD SWAP1 PUSH2 0x100 EXP SWAP1 DIV PUSH1 0x1 PUSH1 0x1 PUSH1 0xA0 SHL SUB AND PUSH1 0x1 PUSH1 0x1 PUSH1 0xA0 SHL SUB AND PUSH4 0xE581F9EE PUSH1 0x40 MLOAD DUP2 PUSH4 0xFFFFFFFF AND PUSH1 0xE0 SHL DUP2 MSTORE PUSH1 0x4 ADD PUSH1 0x20 PUSH1 0x40 MLOAD DUP1 DUP4 SUB DUP2 DUP7 GAS STATICCALL ISZERO DUP1 ISZERO PUSH2 0x877 JUMPI RETURNDATASIZE PUSH1 0x0 DUP1 RETURNDATACOPY RETURNDATASIZE PUSH1 0x0 REVERT JUMPDEST POP POP POP POP PUSH1 0x40 MLOAD RETURNDATASIZE PUSH1 0x1F NOT PUSH1 0x1F DUP3 ADD AND DUP3 ADD DUP1 PUSH1 0x40 MSTORE POP DUP2 ADD SWAP1 PUSH2 0x89B SWAP2 SWAP1 PUSH2 0x2264 JUMP JUMPDEST SWAP2 POP POP SWAP1 JUMP JUMPDEST PUSH1 0x1 SLOAD PUSH1 0x40 MLOAD PUSH4 0x2798A167 PUSH1 0xE1 SHL DUP2 MSTORE PUSH1 0x1 PUSH1 0x1 PUSH1 0xA0 SHL SUB SWAP1 SWAP2 AND SWAP1 PUSH4 0x4F3142CE SWAP1 PUSH2 0x8D5 SWAP1 DUP7 SWAP1 DUP7 SWAP1 DUP7 SWAP1 PUSH1 0x4 ADD PUSH2 0x235B JUMP JUMPDEST PUSH1 0x0 PUSH1 0x40 MLOAD DUP1 DUP4 SUB DUP2 PUSH1 0x0 DUP8 DUP1 EXTCODESIZE ISZERO DUP1 ISZERO PUSH2 0x8EF JUMPI PUSH1 0x0 DUP1 REVERT JUMPDEST POP GAS CALL ISZERO DUP1 ISZERO PUSH2 0x903 JUMPI RETURNDATASIZE PUSH1 0x0 DUP1 RETURNDATACOPY RETURNDATASIZE PUSH1 0x0 REVERT JUMPDEST POP POP POP POP POP POP POP JUMP JUMPDEST PUSH1 0x3 SLOAD PUSH1 0x1 PUSH1 0x1 PUSH1 0xA0 SHL SUB AND CALLER EQ PUSH2 0x936 JUMPI PUSH1 0x40 MLOAD PUSH3 0x461BCD PUSH1 0xE5 SHL DUP2 MSTORE PUSH1 0x4 ADD PUSH2 0x3C6 SWAP1 PUSH2 0x20DD JUMP JUMPDEST PUSH1 0x0 SLOAD PUSH1 0x40 MLOAD PUSH4 0x5F3A3CF1 PUSH1 0xE0 SHL DUP2 MSTORE PUSH1 0x1 PUSH1 0x1 PUSH1 0xA0 SHL SUB SWAP1 SWAP2 AND SWAP1 PUSH4 0x5F3A3CF1 SWAP1 PUSH2 0x96E SWAP1 DUP9 SWAP1 DUP9 SWAP1 DUP9 SWAP1 DUP9 SWAP1 DUP9 SWAP1 PUSH1 0x4 ADD PUSH2 0x2383 JUMP JUMPDEST PUSH1 0x0 PUSH1 0x40 MLOAD DUP1 DUP4 SUB DUP2 PUSH1 0x0 DUP8 DUP1 EXTCODESIZE ISZERO DUP1 ISZERO PUSH2 0x988 JUMPI PUSH1 0x0 DUP1 REVERT JUMPDEST POP GAS CALL ISZERO DUP1 ISZERO PUSH2 0x99C JUMPI RETURNDATASIZE PUSH1 0x0 DUP1 RETURNDATACOPY RETURNDATASIZE PUSH1 0x0 REVERT JUMPDEST POP POP POP POP POP POP POP POP POP JUMP JUMPDEST PUSH1 0x3 SLOAD PUSH1 0x60 SWAP1 DUP2 SWAP1 DUP2 SWAP1 PUSH1 0x1 PUSH1 0x1 PUSH1 0xA0 SHL SUB AND CALLER EQ PUSH2 0x9D8 JUMPI PUSH1 0x40 MLOAD PUSH3 0x461BCD PUSH1 0xE5 SHL DUP2 MSTORE PUSH1 0x4 ADD PUSH2 0x3C6 SWAP1 PUSH2 0x20DD JUMP JUMPDEST PUSH1 0x1 SLOAD PUSH1 0x40 MLOAD PUSH4 0xA18BAF3 PUSH1 0xE2 SHL DUP2 MSTORE PUSH1 0x4 DUP2 ADD DUP7 SWAP1 MSTORE PUSH1 0x0 SWAP2 PUSH1 0x1 PUSH1 0x1 PUSH1 0xA0 SHL SUB AND SWAP1 PUSH4 0x2862EBCC SWAP1 PUSH1 0x24 ADD PUSH1 0x0 PUSH1 0x40 MLOAD DUP1 DUP4 SUB DUP2 DUP7 GAS STATICCALL ISZERO DUP1 ISZERO PUSH2 0xA22 JUMPI RETURNDATASIZE PUSH1 0x0 DUP1 RETURNDATACOPY RETURNDATASIZE PUSH1 0x0 REVERT JUMPDEST POP POP POP POP PUSH1 0x40 MLOAD RETURNDATASIZE PUSH1 0x0 DUP3 RETURNDATACOPY PUSH1 0x1F RETURNDATASIZE SWAP1 DUP2 ADD PUSH1 0x1F NOT AND DUP3 ADD PUSH1 0x40 MSTORE PUSH2 0xA4A SWAP2 SWAP1 DUP2 ADD SWAP1 PUSH2 0x227D JUMP JUMPDEST PUSH1 0x1 SLOAD PUSH1 0x40 MLOAD PUSH4 0x5EB86B95 PUSH1 0xE0 SHL DUP2 MSTORE PUSH1 0x4 DUP2 ADD DUP9 SWAP1 MSTORE SWAP2 SWAP3 POP PUSH1 0x0 SWAP2 PUSH1 0x1 PUSH1 0x1 PUSH1 0xA0 SHL SUB SWAP1 SWAP2 AND SWAP1 PUSH4 0x5EB86B95 SWAP1 PUSH1 0x24 ADD PUSH1 0x0 PUSH1 0x40 MLOAD DUP1 DUP4 SUB DUP2 DUP7 GAS STATICCALL ISZERO DUP1 ISZERO PUSH2 0xA99 JUMPI RETURNDATASIZE PUSH1 0x0 DUP1 RETURNDATACOPY RETURNDATASIZE PUSH1 0x0 REVERT JUMPDEST POP POP POP POP PUSH1 0x40 MLOAD RETURNDATASIZE PUSH1 0x0 DUP3 RETURNDATACOPY PUSH1 0x1F RETURNDATASIZE SWAP1 DUP2 ADD PUSH1 0x1F NOT AND DUP3 ADD PUSH1 0x40 MSTORE PUSH2 0xAC1 SWAP2 SWAP1 DUP2 ADD SWAP1 PUSH2 0x227D JUMP JUMPDEST PUSH1 0x1 SLOAD PUSH1 0x40 MLOAD PUSH4 0xECDE1405 PUSH1 0xE0 SHL DUP2 MSTORE PUSH1 0x4 DUP2 ADD DUP10 SWAP1 MSTORE SWAP2 SWAP3 POP PUSH1 0x0 SWAP2 PUSH1 0x1 PUSH1 0x1 PUSH1 0xA0 SHL SUB SWAP1 SWAP2 AND SWAP1 PUSH4 0xECDE1405 SWAP1 PUSH1 0x24 ADD PUSH1 0x0 PUSH1 0x40 MLOAD DUP1 DUP4 SUB DUP2 DUP7 GAS STATICCALL ISZERO DUP1 ISZERO PUSH2 0xB10 JUMPI RETURNDATASIZE PUSH1 0x0 DUP1 RETURNDATACOPY RETURNDATASIZE PUSH1 0x0 REVERT JUMPDEST POP POP POP POP PUSH1 0x40 MLOAD RETURNDATASIZE PUSH1 0x0 DUP3 RETURNDATACOPY PUSH1 0x1F RETURNDATASIZE SWAP1 DUP2 ADD PUSH1 0x1F NOT AND DUP3 ADD PUSH1 0x40 MSTORE PUSH2 0xB38 SWAP2 SWAP1 DUP2 ADD SWAP1 PUSH2 0x227D JUMP JUMPDEST SWAP3 SWAP8 SWAP2 SWAP7 POP SWAP2 SWAP5 POP SWAP3 POP POP POP JUMP JUMPDEST PUSH1 0x3 SLOAD PUSH1 0x60 SWAP1 PUSH1 0x1 PUSH1 0x1 PUSH1 0xA0 SHL SUB AND CALLER EQ PUSH2 0xB73 JUMPI PUSH1 0x40 MLOAD PUSH3 0x461BCD PUSH1 0xE5 SHL DUP2 MSTORE PUSH1 0x4 ADD PUSH2 0x3C6 SWAP1 PUSH2 0x20DD JUMP JUMPDEST PUSH1 0x1 SLOAD PUSH1 0x40 DUP1 MLOAD PUSH4 0xE6BB2807 PUSH1 0xE0 SHL DUP2 MSTORE SWAP1 MLOAD PUSH1 0x0 SWAP3 PUSH1 0x1 PUSH1 0x1 PUSH1 0xA0 SHL SUB AND SWAP2 PUSH4 0xE6BB2807 SWAP2 PUSH1 0x4 DUP1 DUP4 ADD SWAP3 PUSH1 0x20 SWAP3 SWAP2 SWAP1 DUP3 SWAP1 SUB ADD DUP2 DUP7 GAS STATICCALL ISZERO DUP1 ISZERO PUSH2 0xBBD JUMPI RETURNDATASIZE PUSH1 0x0 DUP1 RETURNDATACOPY RETURNDATASIZE PUSH1 0x0 REVERT JUMPDEST POP POP POP POP PUSH1 0x40 MLOAD RETURNDATASIZE PUSH1 0x1F NOT PUSH1 0x1F DUP3 ADD AND DUP3 ADD DUP1 PUSH1 0x40 MSTORE POP DUP2 ADD SWAP1 PUSH2 0xBE1 SWAP2 SWAP1 PUSH2 0x2264 JUMP JUMPDEST SWAP1 POP DUP1 JUMPDEST DUP1 ISZERO PUSH2 0xE71 JUMPI PUSH1 0x1 SLOAD PUSH1 0x40 MLOAD PUSH4 0x7DFA3649 PUSH1 0xE0 SHL DUP2 MSTORE PUSH1 0x4 DUP2 ADD DUP4 SWAP1 MSTORE DUP8 SWAP2 PUSH1 0x1 PUSH1 0x1 PUSH1 0xA0 SHL SUB AND SWAP1 PUSH4 0x7DFA3649 SWAP1 PUSH1 0x24 ADD PUSH1 0x20 PUSH1 0x40 MLOAD DUP1 DUP4 SUB DUP2 DUP7 GAS STATICCALL ISZERO DUP1 ISZERO PUSH2 0xC34 JUMPI RETURNDATASIZE PUSH1 0x0 DUP1 RETURNDATACOPY RETURNDATASIZE PUSH1 0x0 REVERT JUMPDEST POP POP POP POP PUSH1 0x40 MLOAD RETURNDATASIZE PUSH1 0x1F NOT PUSH1 0x1F DUP3 ADD AND DUP3 ADD DUP1 PUSH1 0x40 MSTORE POP DUP2 ADD SWAP1 PUSH2 0xC58 SWAP2 SWAP1 PUSH2 0x2264 JUMP JUMPDEST SUB PUSH2 0xE5F JUMPI DUP5 PUSH1 0x40 MLOAD PUSH1 0x20 ADD PUSH2 0xC6E SWAP2 SWAP1 PUSH2 0x23BA JUMP JUMPDEST PUSH1 0x40 DUP1 MLOAD DUP1 DUP4 SUB PUSH1 0x1F NOT ADD DUP2 MSTORE SWAP1 DUP3 SWAP1 MSTORE DUP1 MLOAD PUSH1 0x20 SWAP1 SWAP2 ADD KECCAK256 PUSH1 0x1 SLOAD PUSH4 0xA18BAF3 PUSH1 0xE2 SHL DUP4 MSTORE PUSH1 0x4 DUP4 ADD DUP5 SWAP1 MSTORE SWAP1 SWAP2 PUSH1 0x1 PUSH1 0x1 PUSH1 0xA0 SHL SUB SWAP1 SWAP2 AND SWAP1 PUSH4 0x2862EBCC SWAP1 PUSH1 0x24 ADD PUSH1 0x0 PUSH1 0x40 MLOAD DUP1 DUP4 SUB DUP2 DUP7 GAS STATICCALL ISZERO DUP1 ISZERO PUSH2 0xCCF JUMPI RETURNDATASIZE PUSH1 0x0 DUP1 RETURNDATACOPY RETURNDATASIZE PUSH1 0x0 REVERT JUMPDEST POP POP POP POP PUSH1 0x40 MLOAD RETURNDATASIZE PUSH1 0x0 DUP3 RETURNDATACOPY PUSH1 0x1F RETURNDATASIZE SWAP1 DUP2 ADD PUSH1 0x1F NOT AND DUP3 ADD PUSH1 0x40 MSTORE PUSH2 0xCF7 SWAP2 SWAP1 DUP2 ADD SWAP1 PUSH2 0x227D JUMP JUMPDEST PUSH1 0x40 MLOAD PUSH1 0x20 ADD PUSH2 0xD07 SWAP2 SWAP1 PUSH2 0x23BA JUMP JUMPDEST PUSH1 0x40 MLOAD PUSH1 0x20 DUP2 DUP4 SUB SUB DUP2 MSTORE SWAP1 PUSH1 0x40 MSTORE DUP1 MLOAD SWAP1 PUSH1 0x20 ADD KECCAK256 SUB PUSH2 0xE5F JUMPI PUSH1 0x1 SLOAD PUSH1 0x40 MLOAD PUSH4 0x5EB86B95 PUSH1 0xE0 SHL DUP2 MSTORE PUSH1 0x4 DUP2 ADD DUP4 SWAP1 MSTORE PUSH1 0x1 PUSH1 0x1 PUSH1 0xA0 SHL SUB SWAP1 SWAP2 AND SWAP1 PUSH4 0x5EB86B95 SWAP1 PUSH1 0x24 ADD PUSH1 0x0 PUSH1 0x40 MLOAD DUP1 DUP4 SUB DUP2 DUP7 GAS STATICCALL ISZERO DUP1 ISZERO PUSH2 0xD6B JUMPI RETURNDATASIZE PUSH1 0x0 DUP1 RETURNDATACOPY RETURNDATASIZE PUSH1 0x0 REVERT JUMPDEST POP POP POP POP PUSH1 0x40 MLOAD RETURNDATASIZE PUSH1 0x0 DUP3 RETURNDATACOPY PUSH1 0x1F RETURNDATASIZE SWAP1 DUP2 ADD PUSH1 0x1F NOT AND DUP3 ADD PUSH1 0x40 MSTORE PUSH2 0xD93 SWAP2 SWAP1 DUP2 ADD SWAP1 PUSH2 0x227D JUMP JUMPDEST PUSH1 0x40 MLOAD PUSH1 0x20 ADD PUSH2 0xDA3 SWAP2 SWAP1 PUSH2 0x23BA JUMP JUMPDEST PUSH1 0x40 MLOAD PUSH1 0x20 DUP2 DUP4 SUB SUB DUP2 MSTORE SWAP1 PUSH1 0x40 MSTORE DUP1 MLOAD SWAP1 PUSH1 0x20 ADD KECCAK256 DUP5 PUSH1 0x40 MLOAD PUSH1 0x20 ADD PUSH2 0xDCA SWAP2 SWAP1 PUSH2 0x23BA JUMP JUMPDEST PUSH1 0x40 MLOAD PUSH1 0x20 DUP2 DUP4 SUB SUB DUP2 MSTORE SWAP1 PUSH1 0x40 MSTORE DUP1 MLOAD SWAP1 PUSH1 0x20 ADD KECCAK256 SUB PUSH2 0xE5F JUMPI PUSH1 0x1 SLOAD PUSH1 0x40 MLOAD PUSH4 0xECDE1405 PUSH1 0xE0 SHL DUP2 MSTORE PUSH1 0x4 DUP2 ADD DUP4 SWAP1 MSTORE PUSH1 0x1 PUSH1 0x1 PUSH1 0xA0 SHL SUB SWAP1 SWAP2 AND SWAP1 PUSH4 0xECDE1405 SWAP1 PUSH1 0x24 ADD PUSH1 0x0 PUSH1 0x40 MLOAD DUP1 DUP4 SUB DUP2 DUP7 GAS STATICCALL ISZERO DUP1 ISZERO PUSH2 0xE2E JUMPI RETURNDATASIZE PUSH1 0x0 DUP1 RETURNDATACOPY RETURNDATASIZE PUSH1 0x0 REVERT JUMPDEST POP POP POP POP PUSH1 0x40 MLOAD RETURNDATASIZE PUSH1 0x0 DUP3 RETURNDATACOPY PUSH1 0x1F RETURNDATASIZE SWAP1 DUP2 ADD PUSH1 0x1F NOT AND DUP3 ADD PUSH1 0x40 MSTORE PUSH2 0xE56 SWAP2 SWAP1 DUP2 ADD SWAP1 PUSH2 0x227D JUMP JUMPDEST SWAP3 POP POP POP PUSH2 0xEA3 JUMP JUMPDEST DUP1 PUSH2 0xE69 DUP2 PUSH2 0x22C7 JUMP JUMPDEST SWAP2 POP POP PUSH2 0xBE5 JUMP JUMPDEST POP PUSH1 0x40 MLOAD DUP1 PUSH1 0x40 ADD PUSH1 0x40 MSTORE DUP1 PUSH1 0x14 DUP2 MSTORE PUSH1 0x20 ADD PUSH20 0x105CDCDA59DB9B595B9D081B9BDD08199BDD5B99 PUSH1 0x62 SHL DUP2 MSTORE POP SWAP2 POP POP JUMPDEST SWAP4 SWAP3 POP POP POP JUMP JUMPDEST PUSH1 0x3 SLOAD PUSH1 0x1 PUSH1 0x1 PUSH1 0xA0 SHL SUB AND CALLER EQ PUSH2 0xED4 JUMPI PUSH1 0x40 MLOAD PUSH3 0x461BCD PUSH1 0xE5 SHL DUP2 MSTORE PUSH1 0x4 ADD PUSH2 0x3C6 SWAP1 PUSH2 0x20DD JUMP JUMPDEST PUSH1 0x0 SLOAD PUSH1 0x40 MLOAD PUSH4 0x730E56EB PUSH1 0xE0 SHL DUP2 MSTORE PUSH1 0x1 PUSH1 0x1 PUSH1 0xA0 SHL SUB SWAP1 SWAP2 AND SWAP1 PUSH4 0x730E56EB SWAP1 PUSH2 0xF0A SWAP1 DUP8 SWAP1 DUP8 SWAP1 DUP8 SWAP1 DUP8 SWAP1 PUSH1 0x4 ADD PUSH2 0x23D6 JUMP JUMPDEST PUSH1 0x0 PUSH1 0x40 MLOAD DUP1 DUP4 SUB DUP2 PUSH1 0x0 DUP8 DUP1 EXTCODESIZE ISZERO DUP1 ISZERO PUSH2 0xF24 JUMPI PUSH1 0x0 DUP1 REVERT JUMPDEST POP GAS CALL ISZERO DUP1 ISZERO PUSH2 0xF38 JUMPI RETURNDATASIZE PUSH1 0x0 DUP1 RETURNDATACOPY RETURNDATASIZE PUSH1 0x0 REVERT JUMPDEST POP POP POP POP POP POP POP POP JUMP JUMPDEST PUSH1 0x3 SLOAD PUSH1 0x0 SWAP1 PUSH1 0x1 PUSH1 0x1 PUSH1 0xA0 SHL SUB AND CALLER EQ PUSH2 0xF6F JUMPI PUSH1 0x40 MLOAD PUSH3 0x461BCD PUSH1 0xE5 SHL DUP2 MSTORE PUSH1 0x4 ADD PUSH2 0x3C6 SWAP1 PUSH2 0x20DD JUMP JUMPDEST PUSH1 0x0 DUP1 SLOAD PUSH1 0x40 MLOAD PUSH4 0x39BC4959 PUSH1 0xE1 SHL DUP2 MSTORE PUSH1 0x4 DUP2 ADD DUP6 SWAP1 MSTORE PUSH1 0x1 PUSH1 0x1 PUSH1 0xA0 SHL SUB SWAP1 SWAP2 AND SWAP1 PUSH4 0x737892B2 SWAP1 PUSH1 0x24 ADD PUSH1 0x20 PUSH1 0x40 MLOAD DUP1 DUP4 SUB DUP2 DUP7 GAS STATICCALL ISZERO DUP1 ISZERO PUSH2 0xFB9 JUMPI RETURNDATASIZE PUSH1 0x0 DUP1 RETURNDATACOPY RETURNDATASIZE PUSH1 0x0 REVERT JUMPDEST POP POP POP POP PUSH1 0x40 MLOAD RETURNDATASIZE PUSH1 0x1F NOT PUSH1 0x1F DUP3 ADD AND DUP3 ADD DUP1 PUSH1 0x40 MSTORE POP DUP2 ADD SWAP1 PUSH2 0xEA3 SWAP2 SWAP1 PUSH2 0x2264 JUMP JUMPDEST PUSH1 0x3 SLOAD PUSH1 0x60 SWAP1 PUSH1 0x1 PUSH1 0x1 PUSH1 0xA0 SHL SUB AND CALLER EQ PUSH2 0x100A JUMPI PUSH1 0x40 MLOAD PUSH3 0x461BCD PUSH1 0xE5 SHL DUP2 MSTORE PUSH1 0x4 ADD PUSH2 0x3C6 SWAP1 PUSH2 0x20DD JUMP JUMPDEST PUSH1 0x1 SLOAD PUSH1 0x40 DUP1 MLOAD PUSH4 0xF57C6491 PUSH1 0xE0 SHL DUP2 MSTORE SWAP1 MLOAD PUSH1 0x0 SWAP3 PUSH1 0x1 PUSH1 0x1 PUSH1 0xA0 SHL SUB AND SWAP2 PUSH4 0xF57C6491 SWAP2 PUSH1 0x4 DUP1 DUP4 ADD SWAP3 PUSH1 0x20 SWAP3 SWAP2 SWAP1 DUP3 SWAP1 SUB ADD DUP2 DUP7 GAS STATICCALL ISZERO DUP1 ISZERO PUSH2 0x1054 JUMPI RETURNDATASIZE PUSH1 0x0 DUP1 RETURNDATACOPY RETURNDATASIZE PUSH1 0x0 REVERT JUMPDEST POP POP POP POP PUSH1 0x40 MLOAD RETURNDATASIZE PUSH1 0x1F NOT PUSH1 0x1F DUP3 ADD AND DUP3 ADD DUP1 PUSH1 0x40 MSTORE POP DUP2 ADD SWAP1 PUSH2 0x1078 SWAP2 SWAP1 PUSH2 0x2264 JUMP JUMPDEST SWAP1 POP DUP1 JUMPDEST DUP1 ISZERO PUSH2 0x1233 JUMPI PUSH1 0x1 SLOAD PUSH1 0x40 MLOAD PUSH4 0x69D5213B PUSH1 0xE0 SHL DUP2 MSTORE PUSH1 0x4 DUP2 ADD DUP4 SWAP1 MSTORE DUP6 SWAP2 PUSH1 0x1 PUSH1 0x1 PUSH1 0xA0 SHL SUB AND SWAP1 PUSH4 0x69D5213B SWAP1 PUSH1 0x24 ADD PUSH1 0x20 PUSH1 0x40 MLOAD DUP1 DUP4 SUB DUP2 DUP7 GAS STATICCALL ISZERO DUP1 ISZERO PUSH2 0x10CB JUMPI RETURNDATASIZE PUSH1 0x0 DUP1 RETURNDATACOPY RETURNDATASIZE PUSH1 0x0 REVERT JUMPDEST POP POP POP POP PUSH1 0x40 MLOAD RETURNDATASIZE PUSH1 0x1F NOT PUSH1 0x1F DUP3 ADD AND DUP3 ADD DUP1 PUSH1 0x40 MSTORE POP DUP2 ADD SWAP1 PUSH2 0x10EF SWAP2 SWAP1 PUSH2 0x2264 JUMP JUMPDEST EQ DUP1 ISZERO PUSH2 0x11A2 JUMPI POP PUSH1 0x40 DUP1 MLOAD PUSH1 0x0 DUP2 MSTORE PUSH1 0x20 DUP2 ADD SWAP2 DUP3 SWAP1 MSTORE DUP1 MLOAD DUP3 KECCAK256 PUSH1 0x1 SLOAD PUSH4 0x61590D55 PUSH1 0xE0 SHL SWAP1 SWAP4 MSTORE PUSH1 0x24 DUP3 ADD DUP5 SWAP1 MSTORE SWAP2 PUSH1 0x1 PUSH1 0x1 PUSH1 0xA0 SHL SUB AND SWAP1 PUSH4 0x61590D55 SWAP1 PUSH1 0x44 ADD PUSH1 0x0 PUSH1 0x40 MLOAD DUP1 DUP4 SUB DUP2 DUP7 GAS STATICCALL ISZERO DUP1 ISZERO PUSH2 0x1151 JUMPI RETURNDATASIZE PUSH1 0x0 DUP1 RETURNDATACOPY RETURNDATASIZE PUSH1 0x0 REVERT JUMPDEST POP POP POP POP PUSH1 0x40 MLOAD RETURNDATASIZE PUSH1 0x0 DUP3 RETURNDATACOPY PUSH1 0x1F RETURNDATASIZE SWAP1 DUP2 ADD PUSH1 0x1F NOT AND DUP3 ADD PUSH1 0x40 MSTORE PUSH2 0x1179 SWAP2 SWAP1 DUP2 ADD SWAP1 PUSH2 0x227D JUMP JUMPDEST PUSH1 0x40 MLOAD PUSH1 0x20 ADD PUSH2 0x1189 SWAP2 SWAP1 PUSH2 0x23BA JUMP JUMPDEST PUSH1 0x40 MLOAD PUSH1 0x20 DUP2 DUP4 SUB SUB DUP2 MSTORE SWAP1 PUSH1 0x40 MSTORE DUP1 MLOAD SWAP1 PUSH1 0x20 ADD KECCAK256 EQ ISZERO JUMPDEST ISZERO PUSH2 0x1221 JUMPI PUSH1 0x1 SLOAD PUSH1 0x40 MLOAD PUSH4 0x4273DB49 PUSH1 0xE1 SHL DUP2 MSTORE PUSH1 0x4 DUP2 ADD DUP4 SWAP1 MSTORE PUSH1 0x1 PUSH1 0x1 PUSH1 0xA0 SHL SUB SWAP1 SWAP2 AND SWAP1 PUSH4 0x84E7B692 SWAP1 PUSH1 0x24 ADD JUMPDEST PUSH1 0x0 PUSH1 0x40 MLOAD DUP1 DUP4 SUB DUP2 DUP7 GAS STATICCALL ISZERO DUP1 ISZERO PUSH2 0x11F1 JUMPI RETURNDATASIZE PUSH1 0x0 DUP1 RETURNDATACOPY RETURNDATASIZE PUSH1 0x0 REVERT JUMPDEST POP POP POP POP PUSH1 0x40 MLOAD RETURNDATASIZE PUSH1 0x0 DUP3 RETURNDATACOPY PUSH1 0x1F RETURNDATASIZE SWAP1 DUP2 ADD PUSH1 0x1F NOT AND DUP3 ADD PUSH1 0x40 MSTORE PUSH2 0x1219 SWAP2 SWAP1 DUP2 ADD SWAP1 PUSH2 0x227D JUMP JUMPDEST SWAP5 SWAP4 POP POP POP POP JUMP JUMPDEST DUP1 PUSH2 0x122B DUP2 PUSH2 0x22C7 JUMP JUMPDEST SWAP2 POP POP PUSH2 0x107C JUMP JUMPDEST POP POP PUSH1 0x40 DUP1 MLOAD DUP1 DUP3 ADD SWAP1 SWAP2 MSTORE PUSH1 0x14 DUP2 MSTORE PUSH20 0x151A5B59481D18589B19481B9BDD08199BDD5B99 PUSH1 0x62 SHL PUSH1 0x20 DUP3 ADD MSTORE SWAP3 SWAP2 POP POP JUMP JUMPDEST PUSH1 0x2 SLOAD PUSH1 0x40 MLOAD PUSH4 0x41917AAB PUSH1 0xE1 SHL DUP2 MSTORE PUSH1 0x60 SWAP2 PUSH1 0x0 SWAP2 PUSH1 0x1 PUSH1 0x1 PUSH1 0xA0 SHL SUB SWAP1 SWAP2 AND SWAP1 PUSH4 0x8322F556 SWAP1 PUSH2 0x129E SWAP1 DUP8 SWAP1 DUP8 SWAP1 PUSH1 0x4 ADD PUSH2 0x2415 JUMP JUMPDEST PUSH1 0x0 PUSH1 0x40 MLOAD DUP1 DUP4 SUB DUP2 DUP7 GAS STATICCALL ISZERO DUP1 ISZERO PUSH2 0x12BB JUMPI RETURNDATASIZE PUSH1 0x0 DUP1 RETURNDATACOPY RETURNDATASIZE PUSH1 0x0 REVERT JUMPDEST POP POP POP POP PUSH1 0x40 MLOAD RETURNDATASIZE PUSH1 0x0 DUP3 RETURNDATACOPY PUSH1 0x1F RETURNDATASIZE SWAP1 DUP2 ADD PUSH1 0x1F NOT AND DUP3 ADD PUSH1 0x40 MSTORE PUSH2 0x12E3 SWAP2 SWAP1 DUP2 ADD SWAP1 PUSH2 0x243A JUMP JUMPDEST SWAP1 SWAP6 SWAP1 SWAP5 POP SWAP3 POP POP POP JUMP JUMPDEST PUSH1 0x3 SLOAD PUSH1 0x1 PUSH1 0x1 PUSH1 0xA0 SHL SUB AND CALLER EQ PUSH2 0x1318 JUMPI PUSH1 0x40 MLOAD PUSH3 0x461BCD PUSH1 0xE5 SHL DUP2 MSTORE PUSH1 0x4 ADD PUSH2 0x3C6 SWAP1 PUSH2 0x20DD JUMP JUMPDEST PUSH1 0x0 SLOAD PUSH1 0x40 MLOAD PUSH4 0x49A760FF PUSH1 0xE1 SHL DUP2 MSTORE PUSH1 0x1 PUSH1 0x1 PUSH1 0xA0 SHL SUB SWAP1 SWAP2 AND SWAP1 PUSH4 0x934EC1FE SWAP1 PUSH2 0x1352 SWAP1 DUP10 SWAP1 DUP10 SWAP1 DUP10 SWAP1 DUP10 SWAP1 DUP10 SWAP1 DUP10 SWAP1 PUSH1 0x4 ADD PUSH2 0x2480 JUMP JUMPDEST PUSH1 0x0 PUSH1 0x40 MLOAD DUP1 DUP4 SUB DUP2 PUSH1 0x0 DUP8 DUP1 EXTCODESIZE ISZERO DUP1 ISZERO PUSH2 0x136C JUMPI PUSH1 0x0 DUP1 REVERT JUMPDEST POP GAS CALL ISZERO DUP1 ISZERO PUSH2 0x1380 JUMPI RETURNDATASIZE PUSH1 0x0 DUP1 RETURNDATACOPY RETURNDATASIZE PUSH1 0x0 REVERT JUMPDEST POP POP POP POP POP POP POP POP POP POP JUMP JUMPDEST PUSH1 0x3 SLOAD PUSH1 0x1 PUSH1 0x1 PUSH1 0xA0 SHL SUB AND CALLER EQ PUSH2 0x13B6 JUMPI PUSH1 0x40 MLOAD PUSH3 0x461BCD PUSH1 0xE5 SHL DUP2 MSTORE PUSH1 0x4 ADD PUSH2 0x3C6 SWAP1 PUSH2 0x20DD JUMP JUMPDEST PUSH1 0x40 MLOAD PUSH4 0x6D616C65 PUSH1 0xE0 SHL PUSH1 0x20 DUP3 ADD MSTORE PUSH1 0x24 ADD PUSH1 0x40 MLOAD PUSH1 0x20 DUP2 DUP4 SUB SUB DUP2 MSTORE SWAP1 PUSH1 0x40 MSTORE DUP1 MLOAD SWAP1 PUSH1 0x20 ADD KECCAK256 DUP2 PUSH1 0x40 MLOAD PUSH1 0x20 ADD PUSH2 0x13F0 SWAP2 SWAP1 PUSH2 0x23BA JUMP JUMPDEST PUSH1 0x40 MLOAD PUSH1 0x20 DUP2 DUP4 SUB SUB DUP2 MSTORE SWAP1 PUSH1 0x40 MSTORE DUP1 MLOAD SWAP1 PUSH1 0x20 ADD KECCAK256 SUB PUSH2 0x1421 JUMPI PUSH1 0x4 SLOAD PUSH2 0x1419 SWAP1 PUSH1 0x1 PUSH2 0x24F4 JUMP JUMPDEST PUSH1 0x4 SSTORE PUSH2 0x1433 JUMP JUMPDEST PUSH1 0x5 SLOAD PUSH2 0x142F SWAP1 PUSH1 0x1 PUSH2 0x24F4 JUMP JUMPDEST PUSH1 0x5 SSTORE JUMPDEST PUSH1 0x0 DUP1 SLOAD PUSH1 0x40 MLOAD PUSH4 0x9AE52F0F PUSH1 0xE0 SHL DUP2 MSTORE PUSH1 0x1 PUSH1 0x1 PUSH1 0xA0 SHL SUB SWAP1 SWAP2 AND SWAP1 PUSH4 0x9AE52F0F SWAP1 PUSH2 0x146A SWAP1 DUP9 SWAP1 DUP9 SWAP1 DUP9 SWAP1 DUP9 SWAP1 PUSH1 0x4 ADD PUSH2 0x205D JUMP JUMPDEST PUSH1 0x20 PUSH1 0x40 MLOAD DUP1 DUP4 SUB DUP2 PUSH1 0x0 DUP8 GAS CALL ISZERO DUP1 ISZERO PUSH2 0x1489 JUMPI RETURNDATASIZE PUSH1 0x0 DUP1 RETURNDATACOPY RETURNDATASIZE PUSH1 0x0 REVERT JUMPDEST POP POP POP POP PUSH1 0x40 MLOAD RETURNDATASIZE PUSH1 0x1F NOT PUSH1 0x1F DUP3 ADD AND DUP3 ADD DUP1 PUSH1 0x40 MSTORE POP DUP2 ADD SWAP1 PUSH2 0x14AD SWAP2 SWAP1 PUSH2 0x2264 JUMP JUMPDEST SWAP1 POP DUP3 DUP2 PUSH32 0xEFA334500EC19C83CFE9E2BC1E0DF024ADB6B0F70D1B940D5045D94AB072F55C PUSH1 0x40 MLOAD PUSH1 0x40 MLOAD DUP1 SWAP2 SUB SWAP1 LOG3 POP POP POP POP POP JUMP JUMPDEST PUSH1 0x3 SLOAD PUSH1 0x1 PUSH1 0x1 PUSH1 0xA0 SHL SUB AND CALLER EQ PUSH2 0x150E JUMPI PUSH1 0x40 MLOAD PUSH3 0x461BCD PUSH1 0xE5 SHL DUP2 MSTORE PUSH1 0x4 ADD PUSH2 0x3C6 SWAP1 PUSH2 0x20DD JUMP JUMPDEST PUSH1 0x0 SLOAD PUSH1 0x40 MLOAD PUSH4 0x9BAFFD9 PUSH1 0xE4 SHL DUP2 MSTORE PUSH1 0x1 PUSH1 0x1 PUSH1 0xA0 SHL SUB SWAP1 SWAP2 AND SWAP1 PUSH4 0x9BAFFD90 SWAP1 PUSH2 0xF0A SWAP1 DUP8 SWAP1 DUP8 SWAP1 DUP8 SWAP1 DUP8 SWAP1 PUSH1 0x4 ADD PUSH2 0x250C JUMP JUMPDEST PUSH1 0x3 SLOAD PUSH1 0x60 SWAP1 PUSH1 0x0 SWAP1 DUP2 SWAP1 DUP4 SWAP1 PUSH1 0x1 PUSH1 0x1 PUSH1 0xA0 SHL SUB AND CALLER EQ PUSH2 0x1578 JUMPI PUSH1 0x40 MLOAD PUSH3 0x461BCD PUSH1 0xE5 SHL DUP2 MSTORE PUSH1 0x4 ADD PUSH2 0x3C6 SWAP1 PUSH2 0x20DD JUMP JUMPDEST PUSH1 0x0 SLOAD PUSH1 0x40 MLOAD PUSH4 0xC3A356B PUSH1 0xE1 SHL DUP2 MSTORE PUSH1 0x4 DUP2 ADD DUP8 SWAP1 MSTORE PUSH1 0x1 PUSH1 0x1 PUSH1 0xA0 SHL SUB SWAP1 SWAP2 AND SWAP1 PUSH4 0x18746AD6 SWAP1 PUSH1 0x24 ADD PUSH1 0x0 PUSH1 0x40 MLOAD DUP1 DUP4 SUB DUP2 DUP7 GAS STATICCALL ISZERO DUP1 ISZERO PUSH2 0x15C1 JUMPI RETURNDATASIZE PUSH1 0x0 DUP1 RETURNDATACOPY RETURNDATASIZE PUSH1 0x0 REVERT JUMPDEST POP POP POP POP PUSH1 0x40 MLOAD RETURNDATASIZE PUSH1 0x0 DUP3 RETURNDATACOPY PUSH1 0x1F RETURNDATASIZE SWAP1 DUP2 ADD PUSH1 0x1F NOT AND DUP3 ADD PUSH1 0x40 MSTORE PUSH2 0x15E9 SWAP2 SWAP1 DUP2 ADD SWAP1 PUSH2 0x253C JUMP JUMPDEST SWAP4 POP SWAP4 POP SWAP4 POP SWAP4 POP SWAP2 SWAP4 POP SWAP2 SWAP4 JUMP JUMPDEST PUSH1 0x3 SLOAD PUSH1 0x60 SWAP1 PUSH1 0x1 PUSH1 0x1 PUSH1 0xA0 SHL SUB AND CALLER EQ PUSH2 0x1625 JUMPI PUSH1 0x40 MLOAD PUSH3 0x461BCD PUSH1 0xE5 SHL DUP2 MSTORE PUSH1 0x4 ADD PUSH2 0x3C6 SWAP1 PUSH2 0x20DD JUMP JUMPDEST PUSH1 0x1 SLOAD PUSH1 0x40 DUP1 MLOAD PUSH4 0xF57C6491 PUSH1 0xE0 SHL DUP2 MSTORE SWAP1 MLOAD PUSH1 0x0 SWAP3 PUSH1 0x1 PUSH1 0x1 PUSH1 0xA0 SHL SUB AND SWAP2 PUSH4 0xF57C6491 SWAP2 PUSH1 0x4 DUP1 DUP4 ADD SWAP3 PUSH1 0x20 SWAP3 SWAP2 SWAP1 DUP3 SWAP1 SUB ADD DUP2 DUP7 GAS STATICCALL ISZERO DUP1 ISZERO PUSH2 0x166F JUMPI RETURNDATASIZE PUSH1 0x0 DUP1 RETURNDATACOPY RETURNDATASIZE PUSH1 0x0 REVERT JUMPDEST POP POP POP POP PUSH1 0x40 MLOAD RETURNDATASIZE PUSH1 0x1F NOT PUSH1 0x1F DUP3 ADD AND DUP3 ADD DUP1 PUSH1 0x40 MSTORE POP DUP2 ADD SWAP1 PUSH2 0x1693 SWAP2 SWAP1 PUSH2 0x2264 JUMP JUMPDEST SWAP1 POP DUP1 JUMPDEST DUP1 ISZERO PUSH2 0x1233 JUMPI PUSH1 0x1 SLOAD PUSH1 0x40 MLOAD PUSH4 0x69D5213B PUSH1 0xE0 SHL DUP2 MSTORE PUSH1 0x4 DUP2 ADD DUP4 SWAP1 MSTORE DUP6 SWAP2 PUSH1 0x1 PUSH1 0x1 PUSH1 0xA0 SHL SUB AND SWAP1 PUSH4 0x69D5213B SWAP1 PUSH1 0x24 ADD PUSH1 0x20 PUSH1 0x40 MLOAD DUP1 DUP4 SUB DUP2 DUP7 GAS STATICCALL ISZERO DUP1 ISZERO PUSH2 0x16E6 JUMPI RETURNDATASIZE PUSH1 0x0 DUP1 RETURNDATACOPY RETURNDATASIZE PUSH1 0x0 REVERT JUMPDEST POP POP POP POP PUSH1 0x40 MLOAD RETURNDATASIZE PUSH1 0x1F NOT PUSH1 0x1F DUP3 ADD AND DUP3 ADD DUP1 PUSH1 0x40 MSTORE POP DUP2 ADD SWAP1 PUSH2 0x170A SWAP2 SWAP1 PUSH2 0x2264 JUMP JUMPDEST EQ DUP1 ISZERO PUSH2 0x17BC JUMPI POP PUSH1 0x40 DUP1 MLOAD PUSH1 0x0 DUP2 MSTORE PUSH1 0x20 DUP2 ADD SWAP2 DUP3 SWAP1 MSTORE DUP1 MLOAD DUP3 KECCAK256 PUSH1 0x1 SLOAD PUSH4 0x61590D55 PUSH1 0xE0 SHL SWAP1 SWAP4 MSTORE PUSH1 0x24 DUP3 ADD DUP5 SWAP1 MSTORE SWAP2 PUSH1 0x1 PUSH1 0x1 PUSH1 0xA0 SHL SUB AND SWAP1 PUSH4 0x61590D55 SWAP1 PUSH1 0x44 ADD PUSH1 0x0 PUSH1 0x40 MLOAD DUP1 DUP4 SUB DUP2 DUP7 GAS STATICCALL ISZERO DUP1 ISZERO PUSH2 0x176C JUMPI RETURNDATASIZE PUSH1 0x0 DUP1 RETURNDATACOPY RETURNDATASIZE PUSH1 0x0 REVERT JUMPDEST POP POP POP POP PUSH1 0x40 MLOAD RETURNDATASIZE PUSH1 0x0 DUP3 RETURNDATACOPY PUSH1 0x1F RETURNDATASIZE SWAP1 DUP2 ADD PUSH1 0x1F NOT AND DUP3 ADD PUSH1 0x40 MSTORE PUSH2 0x1794 SWAP2 SWAP1 DUP2 ADD SWAP1 PUSH2 0x227D JUMP JUMPDEST PUSH1 0x40 MLOAD PUSH1 0x20 ADD PUSH2 0x17A4 SWAP2 SWAP1 PUSH2 0x23BA JUMP JUMPDEST PUSH1 0x40 MLOAD PUSH1 0x20 DUP2 DUP4 SUB SUB DUP2 MSTORE SWAP1 PUSH1 0x40 MSTORE DUP1 MLOAD SWAP1 PUSH1 0x20 ADD KECCAK256 EQ JUMPDEST ISZERO PUSH2 0x17F2 JUMPI PUSH1 0x1 SLOAD PUSH1 0x40 MLOAD PUSH4 0x4273DB49 PUSH1 0xE1 SHL DUP2 MSTORE PUSH1 0x4 DUP2 ADD DUP4 SWAP1 MSTORE PUSH1 0x1 PUSH1 0x1 PUSH1 0xA0 SHL SUB SWAP1 SWAP2 AND SWAP1 PUSH4 0x84E7B692 SWAP1 PUSH1 0x24 ADD PUSH2 0x11D4 JUMP JUMPDEST DUP1 PUSH2 0x17FC DUP2 PUSH2 0x22C7 JUMP JUMPDEST SWAP2 POP POP PUSH2 0x1697 JUMP JUMPDEST PUSH1 0x1 SLOAD PUSH1 0x40 MLOAD PUSH4 0x63F95E9D PUSH1 0xE1 SHL DUP2 MSTORE PUSH1 0x0 SWAP2 PUSH1 0x1 PUSH1 0x1 PUSH1 0xA0 SHL SUB AND SWAP1 PUSH4 0xC7F2BD3A SWAP1 PUSH2 0x183B SWAP1 DUP9 SWAP1 DUP9 SWAP1 DUP9 SWAP1 DUP9 SWAP1 PUSH1 0x4 ADD PUSH2 0x23D6 JUMP JUMPDEST PUSH1 0x20 PUSH1 0x40 MLOAD DUP1 DUP4 SUB DUP2 PUSH1 0x0 DUP8 GAS CALL ISZERO DUP1 ISZERO PUSH2 0x185A JUMPI RETURNDATASIZE PUSH1 0x0 DUP1 RETURNDATACOPY RETURNDATASIZE PUSH1 0x0 REVERT JUMPDEST POP POP POP POP PUSH1 0x40 MLOAD RETURNDATASIZE PUSH1 0x1F NOT PUSH1 0x1F DUP3 ADD AND DUP3 ADD DUP1 PUSH1 0x40 MSTORE POP DUP2 ADD SWAP1 PUSH2 0x187E SWAP2 SWAP1 PUSH2 0x2264 JUMP JUMPDEST SWAP1 POP DUP5 DUP2 PUSH32 0x4ED08BEE6CB39C3E3CEFE79FD761CDB11F4B6DDAACD565C5ABC7FD2CDB11A8D8 PUSH1 0x40 MLOAD PUSH1 0x40 MLOAD DUP1 SWAP2 SUB SWAP1 LOG3 POP POP POP POP POP JUMP JUMPDEST PUSH1 0x3 SLOAD PUSH1 0x1 PUSH1 0x1 PUSH1 0xA0 SHL SUB AND CALLER EQ PUSH2 0x18DF JUMPI PUSH1 0x40 MLOAD PUSH3 0x461BCD PUSH1 0xE5 SHL DUP2 MSTORE PUSH1 0x4 ADD PUSH2 0x3C6 SWAP1 PUSH2 0x20DD JUMP JUMPDEST PUSH1 0x0 PUSH2 0x18E9 PUSH2 0x7F6 JUMP JUMPDEST SWAP1 POP PUSH1 0x1 JUMPDEST DUP2 DUP2 GT PUSH2 0x1A0A JUMPI PUSH1 0x0 DUP1 SLOAD PUSH1 0x40 MLOAD PUSH4 0xC3A356B PUSH1 0xE1 SHL DUP2 MSTORE PUSH1 0x4 DUP2 ADD DUP5 SWAP1 MSTORE DUP3 SWAP2 PUSH1 0x1 PUSH1 0x1 PUSH1 0xA0 SHL SUB AND SWAP1 PUSH4 0x18746AD6 SWAP1 PUSH1 0x24 ADD PUSH1 0x0 PUSH1 0x40 MLOAD DUP1 DUP4 SUB DUP2 DUP7 GAS STATICCALL ISZERO DUP1 ISZERO PUSH2 0x193F JUMPI RETURNDATASIZE PUSH1 0x0 DUP1 RETURNDATACOPY RETURNDATASIZE PUSH1 0x0 REVERT JUMPDEST POP POP POP POP PUSH1 0x40 MLOAD RETURNDATASIZE PUSH1 0x0 DUP3 RETURNDATACOPY PUSH1 0x1F RETURNDATASIZE SWAP1 DUP2 ADD PUSH1 0x1F NOT AND DUP3 ADD PUSH1 0x40 MSTORE PUSH2 0x1967 SWAP2 SWAP1 DUP2 ADD SWAP1 PUSH2 0x253C JUMP JUMPDEST POP POP SWAP2 POP SWAP2 POP DUP6 PUSH1 0x40 MLOAD PUSH1 0x20 ADD PUSH2 0x197E SWAP2 SWAP1 PUSH2 0x23BA JUMP JUMPDEST PUSH1 0x40 MLOAD PUSH1 0x20 DUP2 DUP4 SUB SUB DUP2 MSTORE SWAP1 PUSH1 0x40 MSTORE DUP1 MLOAD SWAP1 PUSH1 0x20 ADD KECCAK256 DUP3 PUSH1 0x40 MLOAD PUSH1 0x20 ADD PUSH2 0x19A5 SWAP2 SWAP1 PUSH2 0x23BA JUMP JUMPDEST PUSH1 0x40 MLOAD PUSH1 0x20 DUP2 DUP4 SUB SUB DUP2 MSTORE SWAP1 PUSH1 0x40 MSTORE DUP1 MLOAD SWAP1 PUSH1 0x20 ADD KECCAK256 SUB PUSH2 0x19F5 JUMPI DUP5 DUP2 SUB PUSH2 0x19F5 JUMPI PUSH1 0x40 MLOAD DUP2 SWAP1 DUP5 SWAP1 PUSH32 0x78A5F595BAA9B25B7A730211C5CF18E46D8C54F6CD7558AB36FF8EF5CF76D19E SWAP1 PUSH1 0x0 SWAP1 LOG3 JUMPDEST POP POP DUP1 DUP1 PUSH2 0x1A02 SWAP1 PUSH2 0x25A6 JUMP JUMPDEST SWAP2 POP POP PUSH2 0x18EE JUMP JUMPDEST POP POP POP POP JUMP JUMPDEST PUSH1 0x1 SLOAD PUSH1 0x40 MLOAD PUSH1 0x1 PUSH3 0x298AB7 PUSH1 0xE2 SHL SUB NOT DUP2 MSTORE PUSH1 0x1 PUSH1 0x1 PUSH1 0xA0 SHL SUB SWAP1 SWAP2 AND SWAP1 PUSH4 0xFF59D524 SWAP1 PUSH2 0x8D5 SWAP1 DUP7 SWAP1 DUP7 SWAP1 DUP7 SWAP1 PUSH1 0x4 ADD PUSH2 0x25BF JUMP JUMPDEST PUSH1 0x0 PUSH1 0x20 DUP3 DUP5 SUB SLT ISZERO PUSH2 0x1A59 JUMPI PUSH1 0x0 DUP1 REVERT JUMPDEST POP CALLDATALOAD SWAP2 SWAP1 POP JUMP JUMPDEST PUSH1 0x0 JUMPDEST DUP4 DUP2 LT ISZERO PUSH2 0x1A7B JUMPI DUP2 DUP2 ADD MLOAD DUP4 DUP3 ADD MSTORE PUSH1 0x20 ADD PUSH2 0x1A63 JUMP JUMPDEST DUP4 DUP2 GT ISZERO PUSH2 0x1A0A JUMPI POP POP PUSH1 0x0 SWAP2 ADD MSTORE JUMP JUMPDEST PUSH1 0x0 DUP2 MLOAD DUP1 DUP5 MSTORE PUSH2 0x1AA4 DUP2 PUSH1 0x20 DUP7 ADD PUSH1 0x20 DUP7 ADD PUSH2 0x1A60 JUMP JUMPDEST PUSH1 0x1F ADD PUSH1 0x1F NOT AND SWAP3 SWAP1 SWAP3 ADD PUSH1 0x20 ADD SWAP3 SWAP2 POP POP JUMP JUMPDEST PUSH1 0xA0 DUP2 MSTORE PUSH1 0x0 PUSH2 0x1ACB PUSH1 0xA0 DUP4 ADD DUP9 PUSH2 0x1A8C JUMP JUMPDEST DUP3 DUP2 SUB PUSH1 0x20 DUP5 ADD MSTORE PUSH2 0x1ADD DUP2 DUP9 PUSH2 0x1A8C JUMP JUMPDEST SWAP1 POP DUP3 DUP2 SUB PUSH1 0x40 DUP5 ADD MSTORE PUSH2 0x1AF1 DUP2 DUP8 PUSH2 0x1A8C JUMP JUMPDEST SWAP1 POP DUP3 DUP2 SUB PUSH1 0x60 DUP5 ADD MSTORE PUSH2 0x1B05 DUP2 DUP7 PUSH2 0x1A8C JUMP JUMPDEST SWAP1 POP DUP3 DUP2 SUB PUSH1 0x80 DUP5 ADD MSTORE PUSH2 0x1B19 DUP2 DUP6 PUSH2 0x1A8C JUMP JUMPDEST SWAP9 SWAP8 POP POP POP POP POP POP POP POP JUMP JUMPDEST DUP4 DUP2 MSTORE PUSH1 0x60 PUSH1 0x20 DUP3 ADD MSTORE PUSH1 0x0 PUSH2 0x1B3E PUSH1 0x60 DUP4 ADD DUP6 PUSH2 0x1A8C JUMP JUMPDEST SWAP1 POP DUP3 PUSH1 0x40 DUP4 ADD MSTORE SWAP5 SWAP4 POP POP POP POP JUMP JUMPDEST PUSH1 0x0 DUP1 PUSH1 0x40 DUP4 DUP6 SUB SLT ISZERO PUSH2 0x1B61 JUMPI PUSH1 0x0 DUP1 REVERT JUMPDEST POP POP DUP1 CALLDATALOAD SWAP3 PUSH1 0x20 SWAP1 SWAP2 ADD CALLDATALOAD SWAP2 POP JUMP JUMPDEST PUSH1 0x20 DUP2 MSTORE PUSH1 0x0 PUSH2 0xEA3 PUSH1 0x20 DUP4 ADD DUP5 PUSH2 0x1A8C JUMP JUMPDEST PUSH1 0x60 DUP2 MSTORE PUSH1 0x0 PUSH2 0x1B96 PUSH1 0x60 DUP4 ADD DUP7 PUSH2 0x1A8C JUMP JUMPDEST DUP3 DUP2 SUB PUSH1 0x20 DUP5 ADD MSTORE PUSH2 0x1BA8 DUP2 DUP7 PUSH2 0x1A8C JUMP JUMPDEST SWAP1 POP DUP3 DUP2 SUB PUSH1 0x40 DUP5 ADD MSTORE PUSH2 0x1BBC DUP2 DUP6 PUSH2 0x1A8C JUMP JUMPDEST SWAP7 SWAP6 POP POP POP POP POP POP JUMP JUMPDEST PUSH4 0x4E487B71 PUSH1 0xE0 SHL PUSH1 0x0 MSTORE PUSH1 0x41 PUSH1 0x4 MSTORE PUSH1 0x24 PUSH1 0x0 REVERT JUMPDEST PUSH1 0x40 MLOAD PUSH1 0x1F DUP3 ADD PUSH1 0x1F NOT AND DUP2 ADD PUSH1 0x1 PUSH1 0x1 PUSH1 0x40 SHL SUB DUP2 GT DUP3 DUP3 LT OR ISZERO PUSH2 0x1C04 JUMPI PUSH2 0x1C04 PUSH2 0x1BC6 JUMP JUMPDEST PUSH1 0x40 MSTORE SWAP2 SWAP1 POP JUMP JUMPDEST PUSH1 0x0 PUSH1 0x1 PUSH1 0x1 PUSH1 0x40 SHL SUB DUP3 GT ISZERO PUSH2 0x1C25 JUMPI PUSH2 0x1C25 PUSH2 0x1BC6 JUMP JUMPDEST POP PUSH1 0x1F ADD PUSH1 0x1F NOT AND PUSH1 0x20 ADD SWAP1 JUMP JUMPDEST PUSH1 0x0 DUP3 PUSH1 0x1F DUP4 ADD SLT PUSH2 0x1C44 JUMPI PUSH1 0x0 DUP1 REVERT JUMPDEST DUP2 CALLDATALOAD PUSH2 0x1C57 PUSH2 0x1C52 DUP3 PUSH2 0x1C0C JUMP JUMPDEST PUSH2 0x1BDC JUMP JUMPDEST DUP2 DUP2 MSTORE DUP5 PUSH1 0x20 DUP4 DUP7 ADD ADD GT ISZERO PUSH2 0x1C6C JUMPI PUSH1 0x0 DUP1 REVERT JUMPDEST DUP2 PUSH1 0x20 DUP6 ADD PUSH1 0x20 DUP4 ADD CALLDATACOPY PUSH1 0x0 SWAP2 DUP2 ADD PUSH1 0x20 ADD SWAP2 SWAP1 SWAP2 MSTORE SWAP4 SWAP3 POP POP POP JUMP JUMPDEST PUSH1 0x0 DUP1 PUSH1 0x0 PUSH1 0x60 DUP5 DUP7 SUB SLT ISZERO PUSH2 0x1C9E JUMPI PUSH1 0x0 DUP1 REVERT JUMPDEST DUP4 CALLDATALOAD SWAP3 POP PUSH1 0x20 DUP5 ADD CALLDATALOAD SWAP2 POP PUSH1 0x40 DUP5 ADD CALLDATALOAD PUSH1 0x1 PUSH1 0x1 PUSH1 0x40 SHL SUB DUP2 GT ISZERO PUSH2 0x1CC2 JUMPI PUSH1 0x0 DUP1 REVERT JUMPDEST PUSH2 0x1CCE DUP7 DUP3 DUP8 ADD PUSH2 0x1C33 JUMP JUMPDEST SWAP2 POP POP SWAP3 POP SWAP3 POP SWAP3 JUMP JUMPDEST PUSH1 0x0 DUP1 PUSH1 0x0 DUP1 PUSH1 0x0 PUSH1 0xA0 DUP7 DUP9 SUB SLT ISZERO PUSH2 0x1CF0 JUMPI PUSH1 0x0 DUP1 REVERT JUMPDEST DUP6 CALLDATALOAD SWAP5 POP PUSH1 0x20 DUP7 ADD CALLDATALOAD PUSH1 0x1 PUSH1 0x1 PUSH1 0x40 SHL SUB DUP1 DUP3 GT ISZERO PUSH2 0x1D0E JUMPI PUSH1 0x0 DUP1 REVERT JUMPDEST PUSH2 0x1D1A DUP10 DUP4 DUP11 ADD PUSH2 0x1C33 JUMP JUMPDEST SWAP6 POP PUSH1 0x40 DUP9 ADD CALLDATALOAD SWAP5 POP PUSH1 0x60 DUP9 ADD CALLDATALOAD SWAP4 POP PUSH1 0x80 DUP9 ADD CALLDATALOAD SWAP2 POP DUP1 DUP3 GT ISZERO PUSH2 0x1D3E JUMPI PUSH1 0x0 DUP1 REVERT JUMPDEST POP PUSH2 0x1D4B DUP9 DUP3 DUP10 ADD PUSH2 0x1C33 JUMP JUMPDEST SWAP2 POP POP SWAP3 SWAP6 POP SWAP3 SWAP6 SWAP1 SWAP4 POP JUMP JUMPDEST PUSH1 0x0 DUP1 PUSH1 0x0 PUSH1 0x60 DUP5 DUP7 SUB SLT ISZERO PUSH2 0x1D6D JUMPI PUSH1 0x0 DUP1 REVERT JUMPDEST DUP4 CALLDATALOAD SWAP3 POP PUSH1 0x20 DUP5 ADD CALLDATALOAD PUSH1 0x1 PUSH1 0x1 PUSH1 0x40 SHL SUB DUP1 DUP3 GT ISZERO PUSH2 0x1D8B JUMPI PUSH1 0x0 DUP1 REVERT JUMPDEST PUSH2 0x1D97 DUP8 DUP4 DUP9 ADD PUSH2 0x1C33 JUMP JUMPDEST SWAP4 POP PUSH1 0x40 DUP7 ADD CALLDATALOAD SWAP2 POP DUP1 DUP3 GT ISZERO PUSH2 0x1DAD JUMPI PUSH1 0x0 DUP1 REVERT JUMPDEST POP PUSH2 0x1CCE DUP7 DUP3 DUP8 ADD PUSH2 0x1C33 JUMP JUMPDEST PUSH1 0x0 DUP1 PUSH1 0x0 DUP1 PUSH1 0x80 DUP6 DUP8 SUB SLT ISZERO PUSH2 0x1DD0 JUMPI PUSH1 0x0 DUP1 REVERT JUMPDEST DUP5 CALLDATALOAD SWAP4 POP PUSH1 0x20 DUP6 ADD CALLDATALOAD PUSH1 0x1 PUSH1 0x1 PUSH1 0x40 SHL SUB DUP1 DUP3 GT ISZERO PUSH2 0x1DEE JUMPI PUSH1 0x0 DUP1 REVERT JUMPDEST PUSH2 0x1DFA DUP9 DUP4 DUP10 ADD PUSH2 0x1C33 JUMP JUMPDEST SWAP5 POP PUSH1 0x40 DUP8 ADD CALLDATALOAD SWAP2 POP DUP1 DUP3 GT ISZERO PUSH2 0x1E10 JUMPI PUSH1 0x0 DUP1 REVERT JUMPDEST PUSH2 0x1E1C DUP9 DUP4 DUP10 ADD PUSH2 0x1C33 JUMP JUMPDEST SWAP4 POP PUSH1 0x60 DUP8 ADD CALLDATALOAD SWAP2 POP DUP1 DUP3 GT ISZERO PUSH2 0x1E32 JUMPI PUSH1 0x0 DUP1 REVERT JUMPDEST POP PUSH2 0x1E3F DUP8 DUP3 DUP9 ADD PUSH2 0x1C33 JUMP JUMPDEST SWAP2 POP POP SWAP3 SWAP6 SWAP2 SWAP5 POP SWAP3 POP JUMP JUMPDEST PUSH1 0x0 DUP1 PUSH1 0x40 DUP4 DUP6 SUB SLT ISZERO PUSH2 0x1E5E JUMPI PUSH1 0x0 DUP1 REVERT JUMPDEST DUP3 CALLDATALOAD PUSH1 0x1 PUSH1 0x1 PUSH1 0x40 SHL SUB DUP1 DUP3 GT ISZERO PUSH2 0x1E75 JUMPI PUSH1 0x0 DUP1 REVERT JUMPDEST PUSH2 0x1E81 DUP7 DUP4 DUP8 ADD PUSH2 0x1C33 JUMP JUMPDEST SWAP4 POP PUSH1 0x20 DUP6 ADD CALLDATALOAD SWAP2 POP DUP1 DUP3 GT ISZERO PUSH2 0x1E97 JUMPI PUSH1 0x0 DUP1 REVERT JUMPDEST POP PUSH2 0x1EA4 DUP6 DUP3 DUP7 ADD PUSH2 0x1C33 JUMP JUMPDEST SWAP2 POP POP SWAP3 POP SWAP3 SWAP1 POP JUMP JUMPDEST PUSH1 0x40 DUP2 MSTORE PUSH1 0x0 PUSH2 0x1EC1 PUSH1 0x40 DUP4 ADD DUP6 PUSH2 0x1A8C JUMP JUMPDEST SWAP1 POP DUP3 PUSH1 0x20 DUP4 ADD MSTORE SWAP4 SWAP3 POP POP POP JUMP JUMPDEST PUSH1 0x0 DUP1 PUSH1 0x0 DUP1 PUSH1 0x0 DUP1 PUSH1 0xC0 DUP8 DUP10 SUB SLT ISZERO PUSH2 0x1EE9 JUMPI PUSH1 0x0 DUP1 REVERT JUMPDEST DUP7 CALLDATALOAD SWAP6 POP PUSH1 0x20 DUP8 ADD CALLDATALOAD PUSH1 0x1 PUSH1 0x1 PUSH1 0x40 SHL SUB DUP1 DUP3 GT ISZERO PUSH2 0x1F07 JUMPI PUSH1 0x0 DUP1 REVERT JUMPDEST PUSH2 0x1F13 DUP11 DUP4 DUP12 ADD PUSH2 0x1C33 JUMP JUMPDEST SWAP7 POP PUSH1 0x40 DUP10 ADD CALLDATALOAD SWAP2 POP DUP1 DUP3 GT ISZERO PUSH2 0x1F29 JUMPI PUSH1 0x0 DUP1 REVERT JUMPDEST PUSH2 0x1F35 DUP11 DUP4 DUP12 ADD PUSH2 0x1C33 JUMP JUMPDEST SWAP6 POP PUSH1 0x60 DUP10 ADD CALLDATALOAD SWAP2 POP DUP1 DUP3 GT ISZERO PUSH2 0x1F4B JUMPI PUSH1 0x0 DUP1 REVERT JUMPDEST PUSH2 0x1F57 DUP11 DUP4 DUP12 ADD PUSH2 0x1C33 JUMP JUMPDEST SWAP5 POP PUSH1 0x80 DUP10 ADD CALLDATALOAD SWAP2 POP DUP1 DUP3 GT ISZERO PUSH2 0x1F6D JUMPI PUSH1 0x0 DUP1 REVERT JUMPDEST PUSH2 0x1F79 DUP11 DUP4 DUP12 ADD PUSH2 0x1C33 JUMP JUMPDEST SWAP4 POP PUSH1 0xA0 DUP10 ADD CALLDATALOAD SWAP2 POP DUP1 DUP3 GT ISZERO PUSH2 0x1F8F JUMPI PUSH1 0x0 DUP1 REVERT JUMPDEST POP PUSH2 0x1F9C DUP10 DUP3 DUP11 ADD PUSH2 0x1C33 JUMP JUMPDEST SWAP2 POP POP SWAP3 SWAP6 POP SWAP3 SWAP6 POP SWAP3 SWAP6 JUMP JUMPDEST PUSH1 0x0 DUP1 PUSH1 0x0 DUP1 PUSH1 0x80 DUP6 DUP8 SUB SLT ISZERO PUSH2 0x1FBF JUMPI PUSH1 0x0 DUP1 REVERT JUMPDEST DUP5 CALLDATALOAD PUSH1 0x1 PUSH1 0x1 PUSH1 0x40 SHL SUB DUP1 DUP3 GT ISZERO PUSH2 0x1FD6 JUMPI PUSH1 0x0 DUP1 REVERT JUMPDEST PUSH2 0x1FE2 DUP9 DUP4 DUP10 ADD PUSH2 0x1C33 JUMP JUMPDEST SWAP6 POP PUSH1 0x20 DUP8 ADD CALLDATALOAD SWAP5 POP PUSH1 0x40 DUP8 ADD CALLDATALOAD SWAP4 POP PUSH1 0x60 DUP8 ADD CALLDATALOAD SWAP2 POP DUP1 DUP3 GT ISZERO PUSH2 0x1E32 JUMPI PUSH1 0x0 DUP1 REVERT JUMPDEST PUSH1 0x0 DUP1 PUSH1 0x0 DUP1 PUSH1 0x80 DUP6 DUP8 SUB SLT ISZERO PUSH2 0x201C JUMPI PUSH1 0x0 DUP1 REVERT JUMPDEST DUP5 CALLDATALOAD SWAP4 POP PUSH1 0x20 DUP6 ADD CALLDATALOAD SWAP3 POP PUSH1 0x40 DUP6 ADD CALLDATALOAD PUSH1 0x1 PUSH1 0x1 PUSH1 0x40 SHL SUB DUP2 GT ISZERO PUSH2 0x2040 JUMPI PUSH1 0x0 DUP1 REVERT JUMPDEST PUSH2 0x204C DUP8 DUP3 DUP9 ADD PUSH2 0x1C33 JUMP JUMPDEST SWAP5 SWAP8 SWAP4 SWAP7 POP SWAP4 SWAP5 PUSH1 0x60 ADD CALLDATALOAD SWAP4 POP POP POP JUMP JUMPDEST PUSH1 0x80 DUP2 MSTORE PUSH1 0x0 PUSH2 0x2070 PUSH1 0x80 DUP4 ADD DUP8 PUSH2 0x1A8C JUMP JUMPDEST DUP6 PUSH1 0x20 DUP5 ADD MSTORE DUP5 PUSH1 0x40 DUP5 ADD MSTORE DUP3 DUP2 SUB PUSH1 0x60 DUP5 ADD MSTORE PUSH2 0x208E DUP2 DUP6 PUSH2 0x1A8C JUMP JUMPDEST SWAP8 SWAP7 POP POP POP POP POP POP POP JUMP JUMPDEST PUSH1 0x0 DUP1 PUSH1 0x40 DUP4 DUP6 SUB SLT ISZERO PUSH2 0x20AC JUMPI PUSH1 0x0 DUP1 REVERT JUMPDEST DUP3 CALLDATALOAD PUSH1 0x1 PUSH1 0x1 PUSH1 0x40 SHL SUB DUP2 GT ISZERO PUSH2 0x20C2 JUMPI PUSH1 0x0 DUP1 REVERT JUMPDEST PUSH2 0x20CE DUP6 DUP3 DUP7 ADD PUSH2 0x1C33 JUMP JUMPDEST SWAP6 PUSH1 0x20 SWAP5 SWAP1 SWAP5 ADD CALLDATALOAD SWAP5 POP POP POP POP JUMP JUMPDEST PUSH1 0x20 DUP1 DUP3 MSTORE PUSH1 0x15 SWAP1 DUP3 ADD MSTORE PUSH21 0x2CB7BA9030B932903737BA103A34329030B236B4B7 PUSH1 0x59 SHL PUSH1 0x40 DUP3 ADD MSTORE PUSH1 0x60 ADD SWAP1 JUMP JUMPDEST PUSH1 0x0 DUP3 PUSH1 0x1F DUP4 ADD SLT PUSH2 0x211D JUMPI PUSH1 0x0 DUP1 REVERT JUMPDEST DUP2 MLOAD PUSH2 0x212B PUSH2 0x1C52 DUP3 PUSH2 0x1C0C JUMP JUMPDEST DUP2 DUP2 MSTORE DUP5 PUSH1 0x20 DUP4 DUP7 ADD ADD GT ISZERO PUSH2 0x2140 JUMPI PUSH1 0x0 DUP1 REVERT JUMPDEST PUSH2 0x1219 DUP3 PUSH1 0x20 DUP4 ADD PUSH1 0x20 DUP8 ADD PUSH2 0x1A60 JUMP JUMPDEST PUSH1 0x0 DUP1 PUSH1 0x0 DUP1 PUSH1 0x0 PUSH1 0xA0 DUP7 DUP9 SUB SLT ISZERO PUSH2 0x2169 JUMPI PUSH1 0x0 DUP1 REVERT JUMPDEST DUP6 MLOAD PUSH1 0x1 PUSH1 0x1 PUSH1 0x40 SHL SUB DUP1 DUP3 GT ISZERO PUSH2 0x2180 JUMPI PUSH1 0x0 DUP1 REVERT JUMPDEST PUSH2 0x218C DUP10 DUP4 DUP11 ADD PUSH2 0x210C JUMP JUMPDEST SWAP7 POP PUSH1 0x20 DUP9 ADD MLOAD SWAP2 POP DUP1 DUP3 GT ISZERO PUSH2 0x21A2 JUMPI PUSH1 0x0 DUP1 REVERT JUMPDEST PUSH2 0x21AE DUP10 DUP4 DUP11 ADD PUSH2 0x210C JUMP JUMPDEST SWAP6 POP PUSH1 0x40 DUP9 ADD MLOAD SWAP2 POP DUP1 DUP3 GT ISZERO PUSH2 0x21C4 JUMPI PUSH1 0x0 DUP1 REVERT JUMPDEST PUSH2 0x21D0 DUP10 DUP4 DUP11 ADD PUSH2 0x210C JUMP JUMPDEST SWAP5 POP PUSH1 0x60 DUP9 ADD MLOAD SWAP2 POP DUP1 DUP3 GT ISZERO PUSH2 0x21E6 JUMPI PUSH1 0x0 DUP1 REVERT JUMPDEST PUSH2 0x21F2 DUP10 DUP4 DUP11 ADD PUSH2 0x210C JUMP JUMPDEST SWAP4 POP PUSH1 0x80 DUP9 ADD MLOAD SWAP2 POP DUP1 DUP3 GT ISZERO PUSH2 0x2208 JUMPI PUSH1 0x0 DUP1 REVERT JUMPDEST POP PUSH2 0x1D4B DUP9 DUP3 DUP10 ADD PUSH2 0x210C JUMP JUMPDEST PUSH1 0x0 DUP1 PUSH1 0x0 PUSH1 0x60 DUP5 DUP7 SUB SLT ISZERO PUSH2 0x222A JUMPI PUSH1 0x0 DUP1 REVERT JUMPDEST DUP4 MLOAD SWAP3 POP PUSH1 0x20 DUP5 ADD MLOAD PUSH1 0x1 PUSH1 0x1 PUSH1 0x40 SHL SUB DUP2 GT ISZERO PUSH2 0x2247 JUMPI PUSH1 0x0 DUP1 REVERT JUMPDEST PUSH2 0x2253 DUP7 DUP3 DUP8 ADD PUSH2 0x210C JUMP JUMPDEST SWAP3 POP POP PUSH1 0x40 DUP5 ADD MLOAD SWAP1 POP SWAP3 POP SWAP3 POP SWAP3 JUMP JUMPDEST PUSH1 0x0 PUSH1 0x20 DUP3 DUP5 SUB SLT ISZERO PUSH2 0x2276 JUMPI PUSH1 0x0 DUP1 REVERT JUMPDEST POP MLOAD SWAP2 SWAP1 POP JUMP JUMPDEST PUSH1 0x0 PUSH1 0x20 DUP3 DUP5 SUB SLT ISZERO PUSH2 0x228F JUMPI PUSH1 0x0 DUP1 REVERT JUMPDEST DUP2 MLOAD PUSH1 0x1 PUSH1 0x1 PUSH1 0x40 SHL SUB DUP2 GT ISZERO PUSH2 0x22A5 JUMPI PUSH1 0x0 DUP1 REVERT JUMPDEST PUSH2 0x1219 DUP5 DUP3 DUP6 ADD PUSH2 0x210C JUMP JUMPDEST PUSH4 0x4E487B71 PUSH1 0xE0 SHL PUSH1 0x0 MSTORE PUSH1 0x11 PUSH1 0x4 MSTORE PUSH1 0x24 PUSH1 0x0 REVERT JUMPDEST PUSH1 0x0 DUP2 PUSH2 0x22D6 JUMPI PUSH2 0x22D6 PUSH2 0x22B1 JUMP JUMPDEST POP PUSH1 0x0 NOT ADD SWAP1 JUMP JUMPDEST PUSH1 0x0 DUP1 PUSH1 0x0 PUSH1 0x60 DUP5 DUP7 SUB SLT ISZERO PUSH2 0x22F3 JUMPI PUSH1 0x0 DUP1 REVERT JUMPDEST DUP4 MLOAD PUSH1 0x1 PUSH1 0x1 PUSH1 0x40 SHL SUB DUP1 DUP3 GT ISZERO PUSH2 0x230A JUMPI PUSH1 0x0 DUP1 REVERT JUMPDEST PUSH2 0x2316 DUP8 DUP4 DUP9 ADD PUSH2 0x210C JUMP JUMPDEST SWAP5 POP PUSH1 0x20 DUP7 ADD MLOAD SWAP2 POP DUP1 DUP3 GT ISZERO PUSH2 0x232C JUMPI PUSH1 0x0 DUP1 REVERT JUMPDEST PUSH2 0x2338 DUP8 DUP4 DUP9 ADD PUSH2 0x210C JUMP JUMPDEST SWAP4 POP PUSH1 0x40 DUP7 ADD MLOAD SWAP2 POP DUP1 DUP3 GT ISZERO PUSH2 0x234E JUMPI PUSH1 0x0 DUP1 REVERT JUMPDEST POP PUSH2 0x1CCE DUP7 DUP3 DUP8 ADD PUSH2 0x210C JUMP JUMPDEST DUP4 DUP2 MSTORE DUP3 PUSH1 0x20 DUP3 ADD MSTORE PUSH1 0x60 PUSH1 0x40 DUP3 ADD MSTORE PUSH1 0x0 PUSH2 0x237A PUSH1 0x60 DUP4 ADD DUP5 PUSH2 0x1A8C JUMP JUMPDEST SWAP6 SWAP5 POP POP POP POP POP JUMP JUMPDEST DUP6 DUP2 MSTORE PUSH1 0xA0 PUSH1 0x20 DUP3 ADD MSTORE PUSH1 0x0 PUSH2 0x239C PUSH1 0xA0 DUP4 ADD DUP8 PUSH2 0x1A8C JUMP JUMPDEST DUP6 PUSH1 0x40 DUP5 ADD MSTORE DUP5 PUSH1 0x60 DUP5 ADD MSTORE DUP3 DUP2 SUB PUSH1 0x80 DUP5 ADD MSTORE PUSH2 0x1B19 DUP2 DUP6 PUSH2 0x1A8C JUMP JUMPDEST PUSH1 0x0 DUP3 MLOAD PUSH2 0x23CC DUP2 DUP5 PUSH1 0x20 DUP8 ADD PUSH2 0x1A60 JUMP JUMPDEST SWAP2 SWAP1 SWAP2 ADD SWAP3 SWAP2 POP POP JUMP JUMPDEST DUP5 DUP2 MSTORE PUSH1 0x80 PUSH1 0x20 DUP3 ADD MSTORE PUSH1 0x0 PUSH2 0x23EF PUSH1 0x80 DUP4 ADD DUP7 PUSH2 0x1A8C JUMP JUMPDEST DUP3 DUP2 SUB PUSH1 0x40 DUP5 ADD MSTORE PUSH2 0x2401 DUP2 DUP7 PUSH2 0x1A8C JUMP JUMPDEST SWAP1 POP DUP3 DUP2 SUB PUSH1 0x60 DUP5 ADD MSTORE PUSH2 0x208E DUP2 DUP6 PUSH2 0x1A8C JUMP JUMPDEST PUSH1 0x40 DUP2 MSTORE PUSH1 0x0 PUSH2 0x2428 PUSH1 0x40 DUP4 ADD DUP6 PUSH2 0x1A8C JUMP JUMPDEST DUP3 DUP2 SUB PUSH1 0x20 DUP5 ADD MSTORE PUSH2 0x237A DUP2 DUP6 PUSH2 0x1A8C JUMP JUMPDEST PUSH1 0x0 DUP1 PUSH1 0x40 DUP4 DUP6 SUB SLT ISZERO PUSH2 0x244D JUMPI PUSH1 0x0 DUP1 REVERT JUMPDEST DUP3 MLOAD PUSH1 0x1 PUSH1 0x1 PUSH1 0x40 SHL SUB DUP2 GT ISZERO PUSH2 0x2463 JUMPI PUSH1 0x0 DUP1 REVERT JUMPDEST PUSH2 0x246F DUP6 DUP3 DUP7 ADD PUSH2 0x210C JUMP JUMPDEST SWAP3 POP POP PUSH1 0x20 DUP4 ADD MLOAD SWAP1 POP SWAP3 POP SWAP3 SWAP1 POP JUMP JUMPDEST DUP7 DUP2 MSTORE PUSH1 0xC0 PUSH1 0x20 DUP3 ADD MSTORE PUSH1 0x0 PUSH2 0x2499 PUSH1 0xC0 DUP4 ADD DUP9 PUSH2 0x1A8C JUMP JUMPDEST DUP3 DUP2 SUB PUSH1 0x40 DUP5 ADD MSTORE PUSH2 0x24AB DUP2 DUP9 PUSH2 0x1A8C JUMP JUMPDEST SWAP1 POP DUP3 DUP2 SUB PUSH1 0x60 DUP5 ADD MSTORE PUSH2 0x24BF DUP2 DUP8 PUSH2 0x1A8C JUMP JUMPDEST SWAP1 POP DUP3 DUP2 SUB PUSH1 0x80 DUP5 ADD MSTORE PUSH2 0x24D3 DUP2 DUP7 PUSH2 0x1A8C JUMP JUMPDEST SWAP1 POP DUP3 DUP2 SUB PUSH1 0xA0 DUP5 ADD MSTORE PUSH2 0x24E7 DUP2 DUP6 PUSH2 0x1A8C JUMP JUMPDEST SWAP10 SWAP9 POP POP POP POP POP POP POP POP POP JUMP JUMPDEST PUSH1 0x0 DUP3 NOT DUP3 GT ISZERO PUSH2 0x2507 JUMPI PUSH2 0x2507 PUSH2 0x22B1 JUMP JUMPDEST POP ADD SWAP1 JUMP JUMPDEST DUP5 DUP2 MSTORE DUP4 PUSH1 0x20 DUP3 ADD MSTORE PUSH1 0x80 PUSH1 0x40 DUP3 ADD MSTORE PUSH1 0x0 PUSH2 0x252B PUSH1 0x80 DUP4 ADD DUP6 PUSH2 0x1A8C JUMP JUMPDEST SWAP1 POP DUP3 PUSH1 0x60 DUP4 ADD MSTORE SWAP6 SWAP5 POP POP POP POP POP JUMP JUMPDEST PUSH1 0x0 DUP1 PUSH1 0x0 DUP1 PUSH1 0x80 DUP6 DUP8 SUB SLT ISZERO PUSH2 0x2552 JUMPI PUSH1 0x0 DUP1 REVERT JUMPDEST DUP5 MLOAD PUSH1 0x1 PUSH1 0x1 PUSH1 0x40 SHL SUB DUP1 DUP3 GT ISZERO PUSH2 0x2569 JUMPI PUSH1 0x0 DUP1 REVERT JUMPDEST PUSH2 0x2575 DUP9 DUP4 DUP10 ADD PUSH2 0x210C JUMP JUMPDEST SWAP6 POP PUSH1 0x20 DUP8 ADD MLOAD SWAP5 POP PUSH1 0x40 DUP8 ADD MLOAD SWAP4 POP PUSH1 0x60 DUP8 ADD MLOAD SWAP2 POP DUP1 DUP3 GT ISZERO PUSH2 0x2599 JUMPI PUSH1 0x0 DUP1 REVERT JUMPDEST POP PUSH2 0x1E3F DUP8 DUP3 DUP9 ADD PUSH2 0x210C JUMP JUMPDEST PUSH1 0x0 PUSH1 0x1 DUP3 ADD PUSH2 0x25B8 JUMPI PUSH2 0x25B8 PUSH2 0x22B1 JUMP JUMPDEST POP PUSH1 0x1 ADD SWAP1 JUMP JUMPDEST DUP4 DUP2 MSTORE PUSH1 0x60 PUSH1 0x20 DUP3 ADD MSTORE PUSH1 0x0 PUSH2 0x25D8 PUSH1 0x60 DUP4 ADD DUP6 PUSH2 0x1A8C JUMP JUMPDEST DUP3 DUP2 SUB PUSH1 0x40 DUP5 ADD MSTORE PUSH2 0x1BBC DUP2 DUP6 PUSH2 0x1A8C JUMP INVALID LOG2 PUSH5 0x6970667358 0x22 SLT KECCAK256 AND ISZERO 0xBC CALLDATALOAD PUSH25 0x253E8E08467492E715C295C819230D5CA3A3390F497973427C 0x1E 0x2D PUSH5 0x736F6C6343 STOP ADDMOD 0xE STOP CALLER ","sha1":"f2ef0da64da653a473212cd3e6e289e89a74a5da","source":"// SPDX-License-Identifier: MIT\n\npragma solidity 0.8.14;\n\nimport \"./studentData.sol\";\nimport \"./schoolFiles.sol\";\nimport \"./login.sol\";\n\ncontract SchoolAdmin {\n    StudentData studentData;\n    SchoolFiles schoolFiles;\n    Login login;\n    address public admin;\n    uint256 public maleStudents;\n    uint256 public femaleStudents;\n\n    event studentAdded(uint256 indexed _studentId, uint256 indexed _dob);\n    event studentFound(uint256 indexed _studentId, uint256 indexed _rollNumber);\n    event assignmentAdded(uint256 indexed _assignmentId, uint256 indexed _class);\n\n    constructor(\n        address _studentData,\n        address _schoolFiles,\n        address _login\n    ) {\n        studentData = StudentData(_studentData);\n        schoolFiles = SchoolFiles(_schoolFiles);\n        login = Login(_login);\n        admin = msg.sender;\n    }\n\n    modifier isAdmin() {\n        require(msg.sender == admin, \"You are not the admin\");\n        _;\n    }\n\n    function getStudentCount()\n        public\n        view\n        isAdmin\n        returns (uint256 studentCount)\n    {\n        uint256 _studentCount = studentData.studentCount();\n        return _studentCount;\n    }\n\n    function rollNumberToStudentId(uint256 _rollNumber)\n        public\n        view\n        isAdmin\n        returns (uint256 studentId)\n    {\n        uint256 _studentId = studentData.rollNumberToStudentId(_rollNumber);\n        return _studentId;\n    }\n\n    function getStudentPrimaryData(uint256 _studentId)\n        public\n        view\n        isAdmin\n        returns (\n            string memory name,\n            uint256 rollNumber,\n            uint256 dob,\n            string memory gender\n        )\n    {\n        return studentData.studentIdToPrimaryDetails(_studentId);\n    }\n    \n    function getStudentSchoolDetails(uint256 _studentId) public view isAdmin returns (\n            uint256 _class,\n        string memory _email,\n        uint256 _batch\n        ) {\n           return studentData.studentIdToSchoolDetails(_studentId); \n        }\n    function getPersonalDetails(uint256 _studentId) public view isAdmin returns (\n           string memory currentAddress,\n        string memory caste,\n        string memory nationality\n        ) {\n           return studentData.studentIdToPersonalDetails(_studentId); \n        }\n    function getParentalDetails(uint256 _studentId) public view isAdmin returns (\n           string memory guardianName,\n        string memory fatherName,\n        string memory motherName,\n        string memory educationFather,\n        string memory educationMother\n        ) {\n           return studentData.studentIdToParentalDetails(_studentId); \n        }\n\n\n\n\n    function addStudent(\n        string memory _name,\n        uint256 _rollNumber,\n        uint256 _dob,\n        string memory _gender\n    ) public isAdmin {\n        if (\n            keccak256(abi.encodePacked(_gender)) ==\n            keccak256(abi.encodePacked(\"male\"))\n        ) {\n            maleStudents = maleStudents + 1;\n        } else {\n            femaleStudents = femaleStudents + 1;\n        }\n        uint256 _studentId = studentData.addStudent(\n            _name,\n            _rollNumber,\n            _dob,\n            _gender\n        );\n        emit studentAdded(_studentId, _dob);\n    }\n\n    function modifyPrimaryDetails(\n        uint256 _studentId,\n        string memory _name,\n        uint256 _rollNumber,\n        uint256 _dob,\n        string memory _gender\n    ) public isAdmin {\n        studentData.modifyPrimaryDetails(\n            _studentId,\n            _name,\n            _rollNumber,\n            _dob,\n            _gender\n        );\n    }\n\n    function schoolDetails(\n        uint256 _studentId,\n        uint256 _class,\n        string memory _email,\n        uint256 _batch\n    ) public isAdmin {\n        studentData.schoolDetails(_studentId, _class, _email, _batch);\n    }\n\n    \n    function personalDetails(\n        uint256 _studentId,\n        string memory _currentAddress,\n        string memory _caste,\n        string memory _nationality\n    ) public isAdmin {\n        studentData.personalDetails(\n            _studentId,\n            _currentAddress,\n            _caste,\n            _nationality\n        );\n    }\n\n    function parentalDetails(\n        uint256 _studentId,\n        string memory _guardianName,\n        string memory _fatherName,\n        string memory _MotherName,\n        string memory _educationFather,\n        string memory _educationMother\n    ) public isAdmin {\n        studentData.parentalDetails(\n            _studentId,\n            _guardianName,\n            _fatherName,\n            _MotherName,\n            _educationFather,\n            _educationMother\n        );\n    }\n\n    function searchStudent(\n        string memory _name,\n        uint256 _rollnumber        \n    ) public isAdmin {\n        uint256 studentCount = getStudentCount();\n        for (uint256 studentId = 1; studentId <= studentCount; studentId++) {\n            (string memory studentName, uint256 studentRollNumber,,) = studentData.studentIdToPrimaryDetails(studentId);\n            if (keccak256(abi.encodePacked(studentName)) == keccak256(abi.encodePacked(_name))) {\n                if (studentRollNumber == _rollnumber) {\n                    emit studentFound(studentId, studentRollNumber);\n                }\n             \n            }\n        }\n    }\n\n    function addAssignment(\n        uint256 _class,\n        string memory _subject,\n        string memory _file,\n        string memory _topic\n    ) public {\n        uint256 assignmentId = schoolFiles.addAssignment(_class, _subject, _file, _topic);\n        emit assignmentAdded(assignmentId, _class);\n    }\n\n    function addMarksCard(\n        uint256 _studentId,\n        uint256 _class,\n        string memory _file\n    ) public {\n        schoolFiles.addMarksCard(_studentId, _class, _file);\n    }\n\n    function addTimeTable(\n        uint256 _class,\n        string memory _exam,\n        string memory _file\n    ) public {\n        schoolFiles.addTimeTable(_class, _exam, _file);\n    }\n\n    function viewAssignment(uint256 _class, string memory _subject, string memory _topic)\n        public\n        view\n        isAdmin\n        returns (string memory assignmentFile)\n    {\n        uint256 assignmentCount = schoolFiles.assignmentCount();\n        for (\n            uint256 assignmentId = assignmentCount;\n            assignmentId > 0;\n            assignmentId--\n        ) {\n            if (schoolFiles.assignmentIdToclass(assignmentId) == _class) {\n                if (\n                    keccak256(\n                        abi.encodePacked(\n                            schoolFiles.assignmentIdTosubject(assignmentId)\n                        )\n                    ) == keccak256(abi.encodePacked(_subject))\n                ) {\n                    if (keccak256(abi.encodePacked(_topic)) == keccak256(abi.encodePacked(schoolFiles.assignmentIdToTopic(assignmentId)))) {\n                    return schoolFiles.assignmentIdTofile(assignmentId);\n                    }\n                }\n            }\n        }\n        return \"Assignment not found\";\n    }\n\n    function getAssignmentData(uint256 _assignmentId) public view isAdmin returns (string memory subject, string memory topic, string memory file) {\n        string memory _subject = schoolFiles.assignmentIdTosubject(_assignmentId);\n        string memory _topic = schoolFiles.assignmentIdToTopic(_assignmentId);\n        string memory _file = schoolFiles.assignmentIdTofile(_assignmentId);\n        return (_subject, _topic, _file);\n    }\n\n    function viewClassTimeTable(uint256 _class)\n        public\n        view\n        isAdmin\n        returns (string memory timeTableFile)\n    {\n        uint256 timetableCount = schoolFiles.timetableCount();\n        for (\n            uint256 timeTableId = timetableCount;\n            timeTableId > 0;\n            timeTableId--\n        ) {\n            if (\n                schoolFiles.timeTableIdToclass(timeTableId) == _class &&\n                keccak256(\n                    abi.encodePacked(schoolFiles.timeTableIdToexam(timeTableId))\n                ) ==\n                keccak256(abi.encodePacked(\"\"))\n            ) {\n                {\n                    return schoolFiles.timeTableIdTofile(timeTableId);\n                }\n            }\n        }\n        return \"Time table not found\";\n    }\n\n    function viewExamTimeTable(uint256 _class)\n        public\n        view\n        isAdmin\n        returns (string memory timeTableFile)\n    {\n        uint256 timetableCount = schoolFiles.timetableCount();\n        for (\n            uint256 timeTableId = timetableCount;\n            timeTableId > 0;\n            timeTableId--\n        ) {\n            if (\n                schoolFiles.timeTableIdToclass(timeTableId) == _class &&\n                keccak256(\n                    abi.encodePacked(schoolFiles.timeTableIdToexam(timeTableId))\n                ) !=\n                keccak256(abi.encodePacked(\"\"))\n            ) {\n                {\n                    return schoolFiles.timeTableIdTofile(timeTableId);\n                }\n            }\n        }\n        return \"Time table not found\";\n    }\n\n    function viewMarksCard(uint256 _studentId, uint256 _class)\n        public\n        view\n        isAdmin\n        returns (string memory marksCardFile)\n    {\n        uint256 marksCardCount = schoolFiles.marksCardCount();\n        for (\n            uint256 marksCardId = marksCardCount;\n            marksCardId > 0;\n            marksCardId--\n        ) {\n            if (\n                schoolFiles.marksCardIdToclass(marksCardId) == _class &&\n                schoolFiles.marksCardIdTostudentId(marksCardId) == _studentId\n            ) {\n                {\n                    return schoolFiles.marksCardIdTofile(marksCardId);\n                }\n            }\n        }\n        return \"Marks card not found\";\n    }\n\n    function loginCheck(string memory _name, string memory _password)\n        public\n        view\n        returns (string memory _loginType, uint256 _id)\n    {\n        (_loginType, _id) = login.loginCheck(_name, _password);\n        return (_loginType, _id);\n    }\n}\n","sourcePath":"contracts/schoolAdmin.sol","type":"contract"}